S02200006275696C642E4A4F5244414E5741592F626F6F746C6F616465722E73726563BB
S21401F8000C9446FC0C9463FC0C9463FC0C9463FC13
S21401F8100C9463FC0C9463FC0C9463FC0C9463FCE6
S21401F8200C9463FC0C9463FC0C9463FC0C9463FCD6
S21401F8300C9463FC0C9463FC0C9463FC0C9463FCC6
S21401F8400C9463FC0C9463FC0C9463FC0C9463FCB6
S21401F8500C9463FC0C9463FC0C9463FC0C9463FCA6
S21401F8600C9463FC0C9463FC0C9463FC0C9463FC96
S21401F8700C9463FC0C9463FC0C9463FC0C9463FC86
S21401F8800C9463FC0C9463FC0C9463FC11241FBE63
S21401F890CFEFD0E1DEBFCDBF11E0A0E0B1E0E6E4FE
S21401F8A0FDEF01E00BBF02C007900D92A030B1073B
S21401F8B0D9F711E0A0E0B1E001C01D92A030B10778
S21401F8C0E1F70C94C3FD0C9400FC87E089B988E14C
S21401F8D08AB908958CB95E9BFECF5E9A08955F9BA8
S21401F8E0FECF8CB1992787FD909508951F930E94AE
S21401F8F06FFC182F0E946FFC9927382F2227812F23
S21401F9009927822B932B1F9108954F925F926F92A6
S21401F9107F928F929F92AF92BF92CF92DF92EF9299
S21401F920FF920F931F93CF93DF93CDB7DEB7C058E7
S21401F930D0400FB6F894DEBF0FBECDBF2C013A0102
S21401F940653409F05BC0CC24DD2476014C01AA2481
S21401F950BB24C814D904EA04FB0478F48E010F5FB3
S21401F9601F4F0C0D1D1D0E946FFCF801808308942B
S21401F970C11CD11CE11CF11CECCF8091680080FDFC
S21401F980FCCFCC24DD247601920144275527C216EC
S21401F990D306E406F50608F07DC0BE016F5F7F4F13
S21401F9A0F30180818EBB80819181A281B381892FF1
S21401F9B09A2FAB2FBB27A7FDBA958FBBFB01EC0D8A
S21401F9C0FD1D80818DBBE29AE19AE199FECFF3019C
S21401F9D080819181A281B3810196A11DB11D808391
S21401F9E09183A283B3830894C11CD11CE11CF11C32
S21401F9F0C216D306E406F50698F24CC0663409F042
S21401FA004CC0FA01E080F18002811381EE0CFF1CEC
S21401FA10001F111FE082F182028313830E9476FC8D
S21401FA2061E0F30120813181428153810C01F901AA
S21401FA3040935B0060936800E89511242E5F3F4F6A
S21401FA404F4F5F4FF30120833183428353838EEF01
S21401FA509FEF480E591E4114510401F785E0F70146
S21401FA6000935B0080936800E8958091680080FDB4
S21401FA70FCCF81E180936800E895F3018081918154
S21401FA80A281B381B595A795979587958083918334
S21401FA90A283B3838DE090E002C08FE390E0C0586C
S21401FAA0DF4F0FB6F894DEBF0FBECDBFDF91CF910B
S21401FAB01F910F91FF90EF90DF90CF90BF90AF9086
S21401FAC09F908F907F906F905F904F9008950F93C7
S21401FAD01F93CF93DF938C01EA01653401F588818A
S21401FAE08EBB88819981AA81BB81892F9A2FAB2FE2
S21401FAF0BB27A7FDBA958FBB88819981AA81BB8157
S21401FB000196A11DB11D88839983AA83BB83E09AC0
S21401FB108DB30E946AFC0150104009F72FC066346D
S21401FB2069F588819981AA81BB81880F991FAA1FCF
S21401FB30BB1F88839983AA83BB83E881F98184915B
S21401FB400E946AFCE881F981319684910E946AFCE0
S21401FB5088819981AA81BB810296A11DB11D8883E6
S21401FB609983AA83BB830250104039F7B595A795B0
S21401FB709795879588839983AA83BB83DF91CF91D5
S21401FB801F910F910895CBEFD0E1DEBFCDBFF89462
S21401FB90AA24BB240E9465FCEE24FF248701DD24F1
S21401FBA05F9B20C06CB12D2D33272330310534F4F3
S21401FBB0213031056CF4232B41F014C0233031057C
S21401FBC051F02430310559F00DC0643559F405C0A3
S21401FBD06F3619F006C0623621F4D39403C0613241
S21401FBE091F1DD240894E11CF11C011D111D30E08A
S21401FBF0E31630E2F30630E0030730E0130781F442
S21401FC0082E40E946AFC8FE60E946AFC8FE60E94EC
S21401FC106AFC84E70E946AFC8FE30E946AFCC0CFFC
S21401FC2080E0E81680E0F80684E0080780E0180720
S21401FC3009F0B6CF8DE00E946AFC8AE00E946AFC59
S21401FC40F5010995ADCF0E946FFC813449F40E94FD
S21401FC5076FCAA27BB2789839A83AB83BC8322C001
S21401FC60853611F519821A821B821C8223E0809147
S21401FC70680080FDFCCF89819A81AB81BC81FC0143
S21401FC80A0935B0020936800E89580589F4FAF4F84
S21401FC90BF4F89839A83AB83BC838050984FA14022
S21401FCA0B0402CF38DE04CC0823641F489E50E94C9
S21401FCB06AFC80E00E946AFC80E842C0823469F4F3
S21401FCC00E9476FC8C010E946FFC682FAE014F5F8C
S21401FCD05F4FC8010E9485FC33C0873669F40E94D5
S21401FCE076FC8C010E946FFC682FAE014F5F5F4F60
S21401FCF0C8010E9467FDA7CF8335A1F481E40E9465
S21401FD006AFC86E50E946AFC82E50E946AFC82E43F
S21401FD100E946AFC8FE40E946AFC8FE40E946AFCDF
S21401FD2084E50EC0833741F482E00E946AFC85E9CF
S21401FD300E946AFC8EE104C08B3109F484CF8FE304
S20A01FD400E946AFC80CF60
S80401F80002
