S01A00006275696C642E53454757454C4C322F62616C2E7372656329
S11300000C948F020C94AC020C94AC020C94AC02D1
S11300100C94AC020C94AC020C94AC020C94AC02A4
S11300200C94AC020C94AC020C94AC020C94AC0294
S11300300C94AC020C94AC020C94AC020C94AC0284
S11300400C94AC020C94AC020C94B6190C94391BAD
S11300500C94AC020C941B160C94AC020C94AC02E1
S11300600C94AC020C94AC020C94AC020C94AC0254
S11300700C94AC020C94AC020C94AC020C94AC0244
S11300800C94AC020C94AC020C94AC022162616C32
S113009020322E30002162616C20322E3000216229
S11300A0616C616E63655F76616C6964617465201F
S11300B06661696C730A0021726600217272002104
S11300C06C6600216C720000010204050001020448
S11300D0060900010204050A000102040B0D0001D7
S11300E00204050E000102040C07000102040508C5
S11300F040004100420043004500440046004700E0
S113010047014703470247044705470647070000DE
S11301100000B71DC1046E3B8209D926430DDC766D
S113012004136B6BC517B24D861A0550471EB8ED04
S113013008260FF0C922D6D68A2F61CB4B2B649B9D
S11301400C35D386CD310AA08E3CBDBD4F3870DB53
S1130150114CC7C6D0481EE09345A9FD5241ACAD31
S1130160155F1BB0D45BC2969756758B5652C83632
S1130170196A7F2BD86EA60D9B6311105A67144021
S11301801D79A35DDC7D7A7B9F70CD665E74E0B6DD
S1130190239857ABE29C8E8DA191399060953CC019
S11301A0278B8BDDE68F52FBA582E5E66486585BE0
S11301B02BBEEF46EABA3660A9B7817D68B3842DB9
S11301C02FAD3330EEA9EA16ADA45D0B6CA0906D93
S11301D032D42770F3D0FE56B0DD494B71D94C1B95
S11301E036C7FB06F7C32220B4CE953D75CA2880D6
S11301F03AF29F9DFBF646BBB8FBF1A679FFF4F6F5
S11302003EE143EBFFE59ACDBCE82DD07DEC777061
S11302108634C06D4730194B043DAE56C539AB0624
S113022082271C1B4323C53D002E7220C12ACF9D6B
S11302308E1278804F16A1A60C1B16BBCD1F13EB94
S11302408A01A4F64B057DD00808CACDC90C07ABBA
S11302509778B0B6567C69901571DE8DD475DBDD68
S1130260936B6CC0526FB5E6116202FBD066BF4659
S11302709F5E085B5E5AD17D1D576660DC53633018
S11302809B4DD42D5A490D0B1944BA16D84097C624
S1130290A5AC20DB64A8F9FD27A54EE0E6A14BB090
S11302A0A1BFFCAD60BB258B23B69296E2B22F2B87
S11302B0AD8A98366C8E41102F83F60DEE87F35D70
S11302C0A9994440689D9D662B902A7BEA94E71D7A
S11302D0B4E0500075E4892636E93E3BF7ED3B6B0C
S11302E0B0F38C7671F7555032FAE24DF3FE5FF0BD
S11302F0BCC6E8ED7DC231CB3ECF86D6FFCB83862C
S1130300B8D5349B79D1EDBD3ADC5AA0FBD8EEE0E8
S11303100C6959FDCD6D80DB8E6037C64F64329613
S1130320087A858BC97E5CAD8A73EBB04B77560D2A
S1130330044FE110C54B383686468F2B47428A7BE3
S1130340005C3D66C158E4408255535D43519E3B79
S11303501D252926DC21F0009F2C471D5E28424DD7
S11303601936F550D8322C769B3F9B6B5A3B26D6D8
S1130370150391CBD40748ED970AFFF0560EFAA067
S113038011104DBDD014949B93192386521D0E5603
S11303902FF1B94BEEF5606DADF8D7706CFCD2203F
S11303A02BE2653DEAE6BC1BA9EB0B0668EFB6BB86
S11303B027D701A6E6D3D880A5DE6F9D64DA6ACD7F
S11303C023C4DDD0E2C004F6A1CDB3EB60C97E8DB9
S11303D03EBDC990FFB910B6BCB4A7AB7DB0A2FBBB
S11303E03AAE15E6FBAACCC0B8A77BDD79A3C660FC
S11303F0369B717DF79FA85BB4921F4675961A16BB
S11304003288AD0BF38C742DB081C3307185999013
S11304108A5D2E8D4B59F7AB085440B6C95045E65A
S11304208E4EF2FB4F4A2BDD0C479CC0CD43217D01
S1130430827B9660437F4F460072F85BC176FD0B6A
S113044086684A16476C93300461242DC565E94BD0
S11304509B115E565A1587701918306DD81C353D9E
S11304609F0282205E065B061D0BEC1BDC0F51A66F
S11304709337E6BB52333F9D113E8880D03A8DD0EE
S113048097243ACD5620E3EB152D54F6D42979263A
S1130490A9C5CE3B68C1171D2BCCA000EAC8A55046
S11304A0ADD6124D6CD2CB6B2FDF7C76EEDBC1CB9D
S11304B0A1E376D660E7AFF023EA18EDE2EE1DBDC6
S11304C0A5F0AAA064F4738627F9C49BE6FD09FD90
S11304D0B889BEE0798D67C63A80D0DBFB84D58BC2
S11304E0BC9A62967D9EBBB03E930CADFF97B11053
S11304F0B0AF060D71ABDF2B32A66836F3A26D6682
S1130500B4BCDA7B75B8035D36B5B440F7B13031AD
S113051032333435363738396162636465661124A1
S11305201FBECFEFD0E1DEBFCDBF11E0A0E0B1E050
S1130530E4E6FAE300E00BBF02C007900D92A4309A
S1130540B107D9F716E0A4E0B1E001C01D92A837C5
S1130550B107E1F70C9430150C940000C598AE9ADD
S1130560AB98AA98BD9AA69AA39AA29AC698AD9A4D
S1130570A998A898BE9AA59AA19AA09AAC98A49A68
S1130580979896988F9A8E9A1A9A129A83B18F7125
S113059083B982B1806E82B908956F927F928F92EF
S11305A09F92AF92BF92CF92DF92EF92FF920F93FE
S11305B01F93CF93DF93EC01D901C8015601670162
S11305C09A01AB01BC01CD010E94EF1B7B018C01A0
S11305D020E030E040E85FE30E945F1C1816ACF4B2
S11305E00F2EF0E0EF2EF0E0FF2EF0E80F2FFFE3E8
S11305F01F2FF02D0F2EF0E06F2EF0E07F2EF0E095
S11306008F2EF0E09F2EF02D0AC0A801970160E024
S113061070E080E89FE30E94AC1B3B014C01A60103
S11306209501C801B7010E94CC1C7B018C01288173
S113063039814A815B81C401B3010E94CC1C9B01B6
S1130640AC01C801B7010E94AD1B688379838A831A
S11306509B83DF91CF911F910F91FF90EF90DF90DB
S1130660CF90BF90AF909F908F907F906F900895A0
S1130670EF92FF920F931F937B018C0120E030E0F7
S113068040E050E00E945F1C87FF04C017FB1095F8
S113069017F91095C801B7011F910F91FF90EF90C2
S11306A00895AF92BF92CF92DF92EF92FF920F9391
S11306B01F937B018C0159016A010E945F1C87FF13
S11306C002C086017501C801B7011F910F91FF9007
S11306D0EF90DF90CF90BF90AF900895AF92BF920C
S11306E0CF92DF92EF92FF920F931F937B018C01C5
S11306F059016A010E945C1C181614F486017501E4
S1130700C801B7011F910F91FF90EF90DF90CF9038
S1130710BF90AF9008956F927F928F929F92AF9205
S1130720BF92CF92DF92EF92FF920F931F935B01E0
S11307306C0139014A01A80197010E945F1C181637
S11307406CF0A4019301C601B5010E945C1C8823CE
S11307501CF48401730102C086017501C801B7014C
S11307601F910F91FF90EF90DF90CF90BF90AF90CB
S11307709F908F907F906F9008958F929F92AF92E9
S1130780BF92CF92DF92EF92FF920F931F93CF937A
S1130790DF93EC016A017B014801590188898823B0
S11307A031F44C835D836E837F8381E0888B2C815D
S11307B03D814E815F81C701B6010E94AC1B7B0164
S11307C08C01688779878A879B87A50194010E9499
S11307D0CC1C9B01AC01688179818A819B810E9438
S11307E0AD1B688379838A839B832AE939E949E9C4
S11307F05EE3C801B7010E94CC1C9B01AC01C5019A
S1130800B4010E94CC1C9B01AC016C817D818E8162
S11308109F810E94AD1B6C837D838E839F83DF91B8
S1130820CF911F910F91FF90EF90DF90CF90BF90E9
S1130830AF909F908F9008956F927F928F929F9226
S1130840AF92BF92CF92DF92EF92FF920F931F93DA
S1130850CF93DF93EC013A014B0178018901898937
S1130860882331F4488359836A837B8381E0898BAD
S1130870A880B980CA80DB80A6019501C401B301B8
S11308800E94AC1BA80197010E94CC1C7B018C0127
S113089020E030E040E050E46C857D858E859F85C6
S11308A00E94AD1B9B01AC01C801B7010E94EF1B64
S11308B09B01AC01C601B5010E94AD1B688379831D
S11308C08A839B83DF91CF911F910F91FF90EF90CB
S11308D0DF90CF90BF90AF909F908F907F906F905C
S11308E008951BBC1ABCAE9AAB98AA9819BC18BC44
S11308F0AD9AA998A8980895FA018083918161839B
S1130900862F891B87FD0DC097FF089567FDFDCFD6
S113091083818F5F83838823C1F784818F5F84837E
S1130920089597FDF2CF67FFF0CF838181508383D1
S11309308F3F59F78481815084830895EF92FF9209
S11309400F931F937B018C012091BB053091BC0553
S11309504091BD055091BE050E94CC1C9B01AC0189
S113096060912105709122058091230590912405C1
S11309700E94AC1B6093210570932205809323058C
S1130980909324052091BF053091C0054091C10585
S11309905091C205C801B7010E94CC1C9B01AC0157
S11309A06091250570912605809127059091280571
S11309B00E94AC1B60932505709326058093270540
S11309C0909328052091B3053091B4054091B50565
S11309D05091B605C801B7010E94CC1C9B01AC0123
S11309E06091290570912A0580912B0590912C0521
S11309F00E94AC1B6093290570932A0580932B05F4
S1130A0090932C052091AB053091AC054091AD0538
S1130A105091AE0560E070E080E89FE30E94EF1B18
S1130A2020E030E040E85FE30E94AC1BA80197019E
S1130A300E94CC1C9B01AC01609131057091320580
S1130A4080913305909134050E94AD1B609331056C
S1130A507093320580933305909334051F910F9161
S1130A60FF90EF900895DF92EF92FF920F931F9300
S1130A70CF93DF93EC01E880F9800A811B8120E0A9
S1130A8030E040E050ECC801B7010E945C1C87FDD7
S1130A9074C020E030E040E050E4C801B7010E9497
S1130AA05F1C18160CF469C0EC80FD800E811F8158
S1130AB020E030E040E050ECC801B7010E945C1C2B
S1130AC087FD5BC020E030E040E050E4C801B7019E
S1130AD00E945F1C18160CF450C0E884F9840A853F
S1130AE01B8520E030E040EA50ECC801B7010E94C9
S1130AF05C1C87FD42C020E030E040EA50E4C801BD
S1130B00B7010E945F1C1816C4F1EC84FD840E85A5
S1130B101F8520E030E040EA50ECC801B7010E9494
S1130B205C1C87FD2AC020E030E040EA50E4C801A4
S1130B30B7010E945F1C181604F1E888F9880A8935
S1130B401B8920E030E040E85FE3C801B7010E9460
S1130B505C1C87FD12C0DD2420E030E040EA50E454
S1130B60C801B7010E945F1C181614F481E0D82E46
S1130B7081E0D8268D2D992702C080E090E0DF9196
S1130B80CF911F910F91FF90EF90DF900895DF9226
S1130B90EF92FF920F931F93CF93DF93EC01E880C2
S1130BA0F9800A811B8120E030E040E050E0C80178
S1130BB0B7010E945C1C87FD8DC020E030E048EC4A
S1130BC052E4C801B7010E945F1C18160CF482C0DD
S1130BD0EC80FD800E811F8120E030E040E050E099
S1130BE0C801B7010E945C1C87FD74C020E030E09E
S1130BF040EF51E4C801B7010E945F1C18160CF4C1
S1130C0069C0E884F9840A851B8520E030E040E06F
S1130C1050E0C801B7010E945C1C87FD5BC020E066
S1130C2030E048EC52E4C801B7010E945F1C18167A
S1130C300CF450C0EC88FD880E891F892AE037ED3A
S1130C4043E25CE3C801B7010E945C1C87FD42C01B
S1130C5020E030E040EA50E4C801B7010E945F1C84
S1130C601816C4F1E88CF98C0A8D1B8D20E030E055
S1130C7040E050E0C801B7010E945C1C87FD2AC017
S1130C8020E030E040E050E4C801B7010E945F1C5E
S1130C90181604F1EC8CFD8C0E8D1F8D20E030E0D5
S1130CA040E050E0C801B7010E945C1C87FD12C0FF
S1130CB0DD2420E030E040E050E4C801B7010E94A8
S1130CC05F1C181614F491E0D92E81E0D8268D2DDE
S1130CD0992702C080E090E0DF91CF911F910F919E
S1130CE0FF90EF90DF900895DF92EF92FF920F93C1
S1130CF01F93CF93DF93EC01E880F9800A811B8175
S1130D0020E030E040E05FEBC801B7010E945C1CCA
S1130D1087FD2AC020E030E040E05FE3C801B7016E
S1130D200E945F1C181604F1EC80FD800E811F8167
S1130D3020E030E040E85FEBC801B7010E945C1C92
S1130D4087FD12C0DD2420E030E040E85FE3C80105
S1130D50B7010E945F1C181614F421E0D22E81E022
S1130D60D8268D2D992702C080E090E0DF91CF91A5
S1130D701F910F91FF90EF90DF9008956F927F92F3
S1130D808F929F92AF92BF92CF92DF92EF92FF9297
S1130D900F931F93CF93DF93EC013A014B0158015A
S1130DA06901E880F9800A811B8120E030E040E09D
S1130DB050E0C801B7010E945F1C8823BCF0A60163
S1130DC09501C801B7010E94CC1C9B01AC01C40170
S1130DD0B3010E946E039B01AC01C801B7010E94DC
S1130DE0AD1B688379838A839B8317C0C801B701CD
S1130DF09058A60195010E94CC1C9B01AC01C40132
S1130E00B3010E946E039B01AC01C801B7010E94AB
S1130E10AC1B688379838A839B83DF91CF911F9175
S1130E200F91FF90EF90DF90CF90BF90AF909F9085
S1130E308F907F906F90089582EE8FBD81E08EBD7C
S1130E4010928B0085E080938A0084EB92EAA1E9FA
S1130E50B8E38093090590930A05A0930B05B0931A
S1130E600C05089508950E94DC150E9471040E94E7
S1130E7001198823E1F30E9491160E940119882325
S1130E80B1F3F9CFEF92FF920F931F93CF93DF93B8
S1130E90CDB7DEB722970FB6F894DEBF0FBECDBF35
S1130EA0CE0101960E94411A282F882309F4A7C075
S1130EB0E981FA818081833491F0823509F442C05A
S1130EC0883409F456C0813401F1873509F47BC0B4
S1130ED0813509F094C0263009F091C05EC02130FC
S1130EE009F08DC00E94DE1683E60E94791703EA9A
S1130EF015E0F80181918F010E947917F6E00D3514
S1130F001F07B9F70E9451187AC0253109F077C03C
S1130F108F010F5F1F4F0E94DE1681E60E94791732
S1130F20C8010E943305892B09F465C0A1E2B5E02C
S1130F30F80184E101900D928150E1F781E00E9473
S1130F407917E0CF213009F05AC00E94DE1682E7FB
S1130F500E94791703E515E033EAE32E35E0F32E1A
S1130F60F80181918F010E947917E016F106C1F70B
S1130F70C9CF213009F043C00E94DE1688E60E94E2
S1130F80791701E215E0F80181918F010E94791728
S1130F90F5E005331F07B9F7B5CF8181833379F5C0
S1130FA08281823661F58381803349F5848180337F
S1130FB031F58581843719F50E947104F894E0E0D5
S1130FC0F8EF09951CC02135D1F48F010F5F1F4F35
S1130FD00E94DE1687E70E947917C8010E94C705A0
S1130FE0892B49F0A3E5B5E0F80180E501900D9265
S1130FF08150E1F7A3CF80E00E94791783CF229636
S11310000FB6F894DEBF0FBECDBFDF91CF911F9115
S11310100F91FF90EF900895EF92FF920F931F931B
S113102080E090E0A0ECB0E48093530590935405E5
S1131030A0935505B09356050F2EFAE9EF2EF9E962
S1131040FF2EF9E10F2FFFE31F2FF02DE09257053C
S1131050F09258050093590510935A058AE999E9C5
S1131060A9E1B0E480935B0590935C05A0935D05D2
S1131070B0935E058AE097EDA3EABEE380938F0503
S113108090939005A0939105B09392058DEC9CEC00
S1131090ACE4BDE380935F0590936005A093610584
S11310A0B09362052DEC3CEC4CEC5DE320936305BE
S11310B030936405409365055093660584EA90E790
S11310C0ADE7BFE38093670590936805A093690536
S11310D0B0936A0580E090E0A0E4BFE380936B05E1
S11310E090936C05A0936D05B0936E05E0926F0527
S11310F0F092700500937105109372058EEA97E4DF
S1131100A1E6BFE38093730590937405A0937505DE
S1131110B09376058AE999E9A9E9BEE38093970536
S113112090939805A0939905B0939A058DEC9CEC47
S1131130ACECBEE38093770590937805A093790592
S1131140B0937A0520937B0530937C0540937D050D
S113115050937E058DEC9CECACE4BEE380937F055C
S113116090938005A0938105B093820580E090E080
S1131170A0EEB0E48093870590938805A093890539
S1131180B0938A0580E090E0A0E8BFE380938B05EC
S113119090938C05A0938D05B0938E0583E393E320
S11311A0A3EBBEE38093930590939405A0939505D8
S11311B0B09396058FE892ECA5E7BCE380939B057A
S11311C090939C05A0939D05B0939E0584E141E214
S11311D055E0A0E0B0E0FA01182E0E94141DFA01B7
S11311E011928A95E9F780E090E0A0E8BEE380934D
S11311F0210590932205A0932305B093240589E249
S11312009CE5AFE0BDEB8093250590932605A09364
S11312102705B093280583E393E3A3EDBFE380930D
S1131220290590932A05A0932B05B0932C0580E003
S113123090E0A0E0B0E080932D0590932E05A0935C
S11312402F05B093300580E090E0A8ECBFE38093D5
S1131250310590933205A0933305B09334051F9163
S11312600F91FF90EF9008950E940C0883E595E09C
S11312700E94C705892B41F40E94DE168EE990E096
S11312800E9493170E9451188091880090918900C0
S1131290909306018093050110925B0680E090E034
S11312A0A0E0B0E080931B0690931C06A0931D065B
S11312B0B0931E060E947104AC9808955F926F92D9
S11312C07F928F929F92AF92BF92CF92DF92EF92D2
S11312D0FF920F931F93CF93DF935B016C0139014E
S11312E04A01809104018F5F80930401552488236F
S11312F011F461E0562E0F2EF0E0EF2EF0E0FF2EF9
S1131300F0E80F2FFFE31F2FF02D20E030E040E83E
S11313105FEBC601B5010E948B0323E333EF4FEF6C
S113132053E40E94CC1C0E94351CEB018EEFC430A8
S1131330D8070CF063C0C4E0DEEFC401B3019058D9
S11313400F2EF0E0EF2EF0E0FF2EF0E80F2FFFE37A
S11313501F2FF02D20E030E040E85FEB0E948B036C
S113136023E333EF4FEF53E40E94CC1C0E94351C5F
S11313707B0184E0E8168EEFF806F4F454E0E52EE1
S11313805EEFF52EF894D7FD23C0A998AD98A89ADE
S1131390D9BDC8BD552009F045C0F7FC50C0AB9875
S11313A0AE98AA9A0FEF11E00E191F091BBD0ABDD2
S11313B0552009F459C02AC08DEFE81681E0F806DB
S11313C00CF34CEFE42E41E0F42EF894D7FFDDCF7C
S11313D0A898AD98A99AD095C195DF4FD9BDC8BD3D
S11313E05520D9F20E94DE1683EC90E00E949317F8
S11313F0CE010E9417180E945118CFCF81E0CD3F33
S1131400D8070CF49ACFCCEFD1E097CF0E94DE1628
S113141087EB90E00E949317C8010E9417180E945E
S1131420511822C00E94DE168FEB90E00E949317A1
S1131430CE010E9417180E945118F7FEB0CFAA9847
S1131440AE98AB9AE701C150DE4FDBBDCABD552053
S113145059F00E94DE168BEB90E00E949317CE01A8
S11314600E9417180E9451187894DF91CF911F9110
S11314700F91FF90EF90DF90CF90BF90AF909F902F
S11314808F907F906F905F9008952F923F924F922C
S11314905F926F927F928F929F92AF92BF92CF9200
S11314A0DF92EF92FF920F931F93CF93DF93CDB709
S11314B0DEB765970FB6F894DEBF0FBECDBF80913F
S11314C00D058F5F80930D05209188003091890070
S11314D080910501909106018901081B190B309335
S11314E0060120930501B801882777FD8095982F80
S11314F00E94521C17FD68C42091090530910A0509
S113150040910B0550910C050E94CC1C9B01AC0131
S11315106AE077ED83E29CE30E946E039B01AC01D9
S11315206FE672E183E89AE30E9451034B015C0188
S11315306093A7057093A8058093A9059093AA05C5
S11315402091A3053091A4054091A5055091A605CD
S11315500E94AD1B6A8B7B8B8C8B9D8B6093A30548
S11315607093A4058093A5059093A6050091350575
S113157010913605B801882777FD8095982F0E9431
S1131580521C17FD2FC420E030E040E059E30E94D4
S1131590CC1C209131053091320540913305509196
S11315A034050E94CC1C6093AB057093AC0580930A
S11315B0AD059093AE050091370510913805B8013B
S11315C0882777FD8095982F0E94521C17FD03C42D
S11315D020E030E040E859E30E94CC1C20E030E0F9
S11315E040E85FE30E94AC1B29EF30EA4BE050EC8B
S11315F00E94CC1C2B013C016093AF057093B00595
S11316008093B1059093B20500913F051091400578
S1131610B801882777FD8095982F0E94521C17FDEA
S113162019C420E030E040E859E30E94CC1C20E0DB
S113163030E040E85FE30E94AC1B20E030E040E78C
S113164050EC0E94CC1C2091210530912205409140
S11316502305509124050E94AD1B6093BB05709334
S1131660BC058093BD059093BE0500913D05109186
S11316703E05B801882777FD8095982F0E94521C5B
S113168017FDE1C320E030E040E859E30E94CC1CA0
S113169020E030E040E85FE30E94AC1B29EF30EA31
S11316A04BE050E40E94CC1C209125053091260586
S11316B040912705509128050E94AD1B6093BF05FA
S11316C07093C0058093C1059093C20500914105B4
S11316D010914205B801882777FD8095982F0E94C4
S11316E0521C17FDA9C320E030E040E059E30E94FA
S11316F0CC1C6093C3057093C4058093C505909377
S1131700C6050091470510914805B801882777FD63
S11317108095982F0E94521C17FD87C320E030E06B
S113172040E859E30E94CC1C20E030E040E85FE34D
S11317300E94AC1B20E030E040EF5FEB0E94CC1C29
S11317406093CF057093D0058093D1059093D20513
S11317500091490510914A05B801882777FD8095C5
S1131760982F0E94521C17FD59C320E030E040E836
S113177059E30E94CC1C20E030E040E85FE30E9483
S1131780AC1B20E030E040EF5FE30E94CC1C609390
S1131790D3057093D4058093D5059093D605009115
S11317A04F0510915005B801882777FD8095982F33
S11317B00E94521C17FD2BC320E030E040E859E39F
S11317C00E94CC1C20E030E040E85FE30E94AC1BA8
S11317D020E030E040EF5FE30E94CC1C6B017C0111
S11317E06093DB057093DC058093DD059093DE0543
S11317F00091510510915205B801882777FD809515
S1131800982F0E94521C17FDFBC220E030E040E8F4
S113181059E30E94CC1C20E030E040E85FE30E94E2
S1131820AC1B20E030E040EF5FE30E94CC1C9B0146
S1131830AC016093DF057093E0058093E10590931C
S1131840E205C701B6010E94AD1B6093D7057093F2
S1131850D8058093D9059093DA0500913905109144
S11318603A05B801882777FD8095982F0E94521C6D
S113187017FDBFC220E030E040E859E30E94CC1CD1
S113188020E030E040E85FE30E94AC1B20E030E061
S113189040E251EC0E94CC1C2091290530912A058C
S11318A040912B0550912C050E94AD1B7B018C01AE
S11318B06093B3057093B4058093B5059093B60512
S11318C080915B06882309F068C22DEC3CEC4CE463
S11318D05EE3C801B7010E945C1C88230CF465C256
S11318E082E080935B0681E080935C0620919705FB
S11318F0309198054091990550919A0560911B0685
S113190070911C0680911D0690911E060E94CC1CAD
S11319109B01AC01C801B7010E94AD1B6093B705E0
S11319207093B8058093B9059093BA059501840125
S1131930B301A20183E496E00E94BD030091A705D0
S11319401091A8052091A9053091AA054091B705E9
S11319505091B8056091B9057091BA0583E496E099
S11319600E941C0480E090E0A0E8BFE380932B0673
S113197090932C06A0932D06B0932E06C090430698
S1131980D0904406E0904506F09046060091A705E5
S11319901091A8052091A9053091AA054AE057EDB8
S11319A063E27DE38BEE95E00E94CD02C0904B068E
S11319B0D0904C06E0904D06F0904E060091A7059D
S11319C01091A8052091A9053091AA054FE852EC81
S11319D065E77CE383EF95E00E94CD02C090BB05F0
S11319E0D090BC05E090BD05F090BE050091A70520
S11319F01091A8052091A9053091AA054DEC5CEC45
S1131A006CEC7DE38BEF95E00E94CD02C090BF05A6
S1131A10D090C005E090C105F090C2050091A705E3
S1131A201091A8052091A9053091AA054DEC5CEC14
S1131A306CE47DE38FEF95E00E94CD02C090C30576
S1131A40D090C405E090C505F090C6050091A705A7
S1131A501091A8052091A9053091AA0540E050E015
S1131A6060E07FE387E096E00E94CD0280911F064C
S1131A7090912006A0912106B09122068E879F871F
S1131A80A88BB98B8093230690932406A0932506F4
S1131A90B093260680E090E0A0E0B0E080931306C7
S1131AA090931406A0931506B0931606E0906B0568
S1131AB0F0906C0500916D0510916E05A0906F0576
S1131AC0B0907005C0907105D090720520E030E0B0
S1131AD040E05FE360910706709108068091090673
S1131AE090910A060E94CC1C20E030E040E05FE3C5
S1131AF00E94AD1B6A877B878C879D879B01AC0105
S1131B00C801B7010E94CC1C3B014C019B01AC01F4
S1131B106E857F85888999890E945F1C18160CF44C
S1131B200CC62A853B854C855D85C601B5010E949E
S1131B30CC1C1B012C019B01AC0150586E857F8588
S1131B40888999890E945C1C88230CF443C6A09060
S1131B501706B0901806C0901906D0901A0620E017
S1131B6030E040E050E0C601B5010E945F1C181649
S1131B700CF0D1C120E030E040E850E46091A705CA
S1131B807091A8058091A9059091AA050E94CC1C8A
S1131B907B018C01A40193016E857F8588899989D5
S1131BA00E94AC1B9B01AC0160E070E080E090E01F
S1131BB00E946E039B01AC016AE077ED83EA9CEB23
S1131BC00E946E039B01AC01C801B7010E94CC1CAA
S1131BD09B01AC01C601B5010E94AD1B5B016C0108
S1131BE060931706709318068093190690931A064B
S1131BF020E030E040E050E00E945C1C88230CF4BC
S1131C00DCC10F2EF0E0EF2EF0E0FF2EF0E00F2FFE
S1131C10FFE31F2FF02D20E030E040E05FEBC60132
S1131C20B5010E948B037B018C01609317067093AE
S1131C3018068093190690931A0680E090E0A0E0BD
S1131C40B0E08093270690932806A0932906B093CA
S1131C502A062091770530917805409179055091B5
S1131C607A0550586A857B858C859D850E94CC1C9D
S1131C709B01AC016E857F85888999890E945C1CD3
S1131C80882364F48FE892ECA5EFBCE380932706E5
S1131C9090932806A0932906B0932A06A090EB05FA
S1131CA0B090EC05C090ED05D090EE0526E636E642
S1131CB046E65FE360911306709114068091150661
S1131CC0909116060E94CC1C9B01AC01C801B7017F
S1131CD00E94AD1B0F2EFDECEF2EFCECFF2EFCEC56
S1131CE00F2FFEE31F2FF02D2DEC3CEC4CEC5EEBA4
S1131CF00E948B039B01AC01C601B5010E94AD1B80
S1131D003B014C016093EF057093F0058093F1055E
S1131D109093F20520900B0630900C0640900D062F
S1131D2050900E0620E030E040E85FE3C201B101CC
S1131D300E945C1C882309F4CBC480915B0682302A
S1131D4081F02AE939E949E15FE3C601B5010E945E
S1131D505F1C18160CF0AAC482E080935B06809383
S1131D605C06E090AB05F090AC050091AD051091D8
S1131D70AE0523E333E343EB5EE3C801B7010E94FE
S1131D805C1C88230CF02CC182E080935B0684E009
S1131D9080935C060E9471044AC6853009F48AC0A7
S1131DA0843009F05EC01A9A42C62DEC3CEC4CE437
S1131DB05EEBC801B7010E945F1C18160CF090CDB1
S1131DC081E080935B0692CD20E030E040E857E468
S1131DD00E94AD1B91CB20E030E040E857E40E9424
S1131DE0AD1BF6CB20E030E040E857E40E94AD1B89
S1131DF0CACB20E030E040E857E40E94AD1B3ACD66
S1131E0020E030E040E857E40E94AD1BFECC20E027
S1131E1030E040E857E40E94AD1BCECC20E030E037
S1131E2040E857E40E94AD1BA0CC20E030E040E83D
S1131E3057E40E94AD1B72CC20E030E040E857E448
S1131E400E94AD1B50CC20E030E040E857E40E94F3
S1131E50AD1B18CC20E030E040E857E40E94AD1BF5
S1131E60E0CB833009F042CD6AE077ED83E29CE376
S1131E700E949E0420E030E040E050E46091A3051D
S1131E807091A4058091A5059091A6050E945F1C00
S1131E9018160CF0CCC51A98F89484E1E1E2F5E048
S1131EA0A0E0B0E0182E0E94191D789484E080937D
S1131EB05B06BDC520E030E040EA51E46A897B89D5
S1131EC08C899D890E94EF1B9B01AC016AE979E929
S1131ED089E99EE30E946E037B018C0160933B06BB
S1131EE070933C0680933D0690933E0620E030E0DC
S1131EF040E05FE30E94CC1C9B01AC0160933F0671
S1131F00709340068093410690934206C801B7013E
S1131F100E945E098CC520E030E040E050E0C6013C
S1131F20B5010E945C1C88230CF06BCE20E030E0ED
S1131F3040E850E46091A7057091A8058091A90537
S1131F409091AA050E94CC1C7B018C01A2019101F5
S1131F506E857F85888999890E94AD1B9B01AC01A0
S1131F6060E070E080E090E00E9451039B01AC01CE
S1131F706AE077ED83EA9CE30E9451039B01AC0184
S1131F80C801B7010E94CC1C9B01AC01C601B5017C
S1131F900E94AD1B5B016C016093170670931806D9
S1131FA08093190690931A0620E030E040E050E058
S1131FB00E945F1C18160CF024CE0F2EF0E0AF2EFA
S1131FC0F0E0BF2EF0E0CF2EF0E0DF2EF02DA09257
S1131FD01706B0921806C0921906D0921A0611CEAE
S1131FE080915B06813009F0D5CEA801970166E6A1
S1131FF076E686EE9EE30E9451036A837B838C839C
S11320009D8320915305309154054091550550917D
S11320105605C401B3010E94CC1C7B018C012091A4
S1132020F3053091F4054091F5055091F605609162
S11320305705709158058091590590915A050E9451
S1132040CC1C9B01AC01C801B7010E94AD1B7B01F4
S11320508C012091F7053091F8054091F9055091D4
S1132060FA0560915B0570915C0580915D05909126
S11320705E050E94CC1C9B01AC01C801B7010E9403
S1132080AD1B9B01AC01C201B1010E94CC1C20918B
S11320902B0630912C0640912D0650912E060E945D
S11320A0CC1C5B016C0160931B0670931C0680932F
S11320B01D0690931E0620E030E040E050E00E94B0
S11320C05F1C88230CF4E2C3E0908B05F0908C0530
S11320D000918D0510918E0520916705309168055A
S11320E04091690550916A056A817B818C819D814B
S11320F00E94CC1C2E853F85488959890E94AC1BBF
S113210020918F0530919005409191055091920551
S11321100E94EF1BA80197010E946E037B018C01B2
S11321206093E3057093E4058093E5059093E605D9
S11321309B01AC01C601B5010E945F1C18160CF08E
S113214087C320E030E040E050E0C801B7010E94BE
S11321505C1C88230CF43DC4E0921B06F0921C0620
S113216000931D0610931E06A1E0A983E0901B06B0
S1132170F0901C0600911D0610911E0620918F05FB
S1132180309190054091910550919205C801B70195
S11321900E94CC1C9B01AC016E857F85888999893E
S11321A00E94AD1B2A813B814C815D810E94EF1B03
S11321B060932F0670933006809331069093320615
S11321C08090A7059090A805A090A905B090AA05B5
S11321D020E030E040E05FE3C501B4010E94CC1C84
S11321E09B01AC01C801B7010E94CC1C9B01AC014E
S11321F06E857F85888999890E94AD1B60931F062F
S1132200709320068093210690932206C801B7019B
S11322100E94380320E030E040E251E40E94CC1CEC
S11322209B01AC0160914F0670915006809151065C
S1132230909152060E94510360934F06709350068A
S113224080935106909352060F2EF0E0CF2EF0E0CB
S1132250DF2EF0E0EF2EF0E0FF2EF02D950184014B
S113226040E050E060E07FE38FE496E00E94CD021E
S1132270E0902706F09028060091290610912A067E
S113228020E030E040E050E0C801B7010E945C1C4F
S11322908823C1F080910D0583FDE3C2A801970155
S11322A060912F067091300680913106909132062C
S11322B00E94AC1B60932F06709330068093310606
S11322C090933206F981FF2309F4B5C26091E705C2
S11322D07091E8058091E9059091EA052091A705A0
S11322E03091A8054091A9055091AA050E94AD1B03
S11322F06093E7057093E8058093E9059093EA05F8
S113230020E030E040E05FE30E945F1C18160CF40C
S1132310A1C280915406882329F080915306882312
S113232009F010C3A0901F06B0902006C0902106AB
S1132330D0902206209107063091080640910906A4
S113234050910A0660E070E080E090E40E94AC1BCB
S113235020917F053091800540918105509182053F
S11323600E94CC1C7B018C01A6019501C601B5011C
S11323700E94CC1C9B01AC01C801B7010E94AD1B9B
S11323809B01AC0160917B0570917C0580917D057A
S113239090917E050E94EF1B20910B0630910C0654
S11323A040910D0650910E060E94CC1C7B018C01BD
S11323B06093330670933406809335069093360603
S11323C0C601B5010E94380320916305309164056C
S11323D040916505509166050E94EF1B9B01AC017D
S11323E060E070E080E89FE30E946E0320915F0547
S11323F03091600540916105509162050E94CC1CAA
S11324003B014C012091FB053091FC054091FD05F9
S11324105091FE05C801B7010E94CC1C5B016C0100
S113242020918705309188054091890550918A054E
S11324300E94CC1C0F2EF9EFEF2EF0EAFF2EFBE0EA
S11324400F2FF0E41F2FF02D29EF30EA4BE050EC72
S11324500E948B0360930306709304068093050621
S1132460909306062091FF053091000640910106E5
S1132470509102060E94AC1B9B01AC01C401B30144
S11324800E94CC1C9B01AC01C601B5010E94AD1B8E
S11324905B016C01609337067093380680933906AC
S11324A090933A0660900F06709010068090110683
S11324B090901206D401C301B0588E839F83A887DD
S11324C0B98720902F063090300640903106509006
S11324D03206A6019501C201B1010E94AC1B840120
S11324E073012E813F81488559850E948B03609337
S11324F03B0670933C0680933D0690933E06A201F2
S11325009101C601B5010E94AD1B2E813F81488512
S113251059850E948B0360933F0670934006809315
S113252041069093420640919B0550919C05609111
S11325309D0570919E0500E010E020E030E48BE3FF
S113254096E00E94BE0640919B0550919C056091C7
S11325509D0570919E0500E010E020E030E48FE3DB
S113256096E00E94BE0620913F06309140064091BD
S113257041065091420660913B0670913C06809161
S11325803D0690913E060E945E09A0903B06B090E5
S11325903C06C0903D06D0903E06E0907305F09056
S11325A074050091750510917605A8019701C6017F
S11325B0B5010E945F1C18160CF476C0370148015F
S11325C097FA909497F89094A4019301C601B501E9
S11325D00E945C1C87FD68C09981992309F064C03E
S11325E0A0903F06B0904006C0904106D0904206AD
S11325F0A6019501C801B7010E945C1C87FD54C067
S1132600A6019501C401B3010E945F1C18160CF4C5
S11326104BC0E090BB05F090BC050091BD05109146
S1132620BE0520E030E040E85FE3C801B7010E9446
S11326305F1C1816CCF120E030E040E85FEBC801E5
S1132640B7010E945C1C87FD2FC0E0909305F090B9
S1132650940500919505109196056091DB057091A4
S1132660DC058091DD059091DE050E943803A80108
S113267097010E945F1C18160CF0C5C180910D05CE
S11326808C70883089F02DEC3CEC4CE45EE3609176
S1132690A3057091A4058091A5059091A6050E94BB
S11326A05C1C88230CF07FCB1A98C1C12AE939E954
S11326B049E15FEBC601B5010E945C1C88230CF064
S11326C050CB82E080935B0683E080935C0649CB29
S11326D02091A7053091A8054091A9055091AA051C
S11326E0C401B3010E94CC1C20E030E040E850E477
S11326F00E94CC1C2091F7053091F8054091F90512
S11327005091FA050E94AD1B0F2EFDECEF2EFCEC50
S1132710FF2EFCEC0F2FFDE31F2FF02D2DEC3CECD6
S11327204CEC5DEB0E948B036093F7057093F80506
S11327308093F9059093FA0500CBA40193016E856B
S11327407F85888999890E94AC1B7B018C016093E9
S113275013067093140680931506909316066091E1
S1132760A7057091A8058091A9059091AA059B01E0
S1132770AC010E94AD1B5B016C012AE037ED43EA1A
S11327805DE3C801B7010E94AC1B9B01AC0160E092
S113279070E080E090E00E9451039B01AC01C6010F
S11327A0B5010E94CC1C9B01AC016091170670918D
S11327B018068091190690911A060E94AD1B5B01C0
S11327C06C01609317067093180680931906909312
S11327D01A0617CAA20191016E857F858889998995
S11327E00E94AD1B7B018C01609313067093140649
S11327F080931506909316066091A7057091A8051D
S11328008091A9059091AA059B01AC010E94AD1B82
S11328105B016C012AE037ED43EA5DE3C801B701CF
S11328200E94AD1B9B01AC0160E070E080E090E091
S11328300E946E03B2CF80E090E0A0E0B0E080930D
S1132840E7059093E805A093E905B093EA0561CD07
S113285019828CCC82E080935B0685E080935C06D1
S113286058CD20912F063091300640913106509179
S11328703206C801B7010E94AD1B60932F06709306
S1132880300680933106909332061CCDE0908B0580
S1132890F0908C0500918D0510918E0517FB109515
S11328A017F91095209167053091680540916905E5
S11328B050916A0550586A817B818C819D810E9468
S11328C0CC1C2E853F85488959890E94AC1B2091D8
S11328D08F053091900540919105509192050E9489
S11328E0EF1BA80197010E9451037B018C016093A7
S11328F0E3057093E4058093E5059093E6059B0159
S1132900AC01C601B5010E945C1C88230CF0A0CF69
S113291020E030E040E050E0C801B7010E945F1CB5
S113292088230CF465C080E090E0A0E0B0E08093E0
S11329301B0690931C06A0931D06B0931E06B1E0DF
S1132940B98314CCE090A705F090A8050091A905DF
S11329501091AA0520910B0630910C0640910D06AA
S113296050910E06C801B7010E94AD1B9B01AC013A
S113297060E070E080E89FE30E946E0360930B06C2
S113298070930C0680930D0690930E0620E030E0C1
S113299040E85EE3C801B7010E94CC1C20910F06F9
S11329A03091100640911106509112060E94AD1B01
S11329B09B01AC0160E070E080E89FE30E946E033D
S11329C060930F067093100680931106909312067D
S11329D0A9CC80E090E0A0E0B0E080931B06909347
S11329E01C06A0931D06B0931E0691E09983BECBEE
S11329F0E0921B06F0921C0600931D0610931E061F
S1132A00E1E0E983B3CB6091DF057091E00580914B
S1132A10E1059091E2050E9438039B01AC01C801D5
S1132A20B7010E945C1C88230CF02DCE27CE65963E
S1132A300FB6F894DEBF0FBECDBFDF91CF911F91CB
S1132A400F91FF90EF90DF90CF90BF90AF909F9049
S1132A508F907F906F905F904F903F902F9008954C
S1132A600E941C070E94AE020E94A1160E942F1B06
S1132A7078940E94DE1685E990E00E9493170E94E4
S1132A8051180E94D015969A0E94921696980E9408
S1132A903409979896980E9401198823D9F540E043
S1132AA067E071E085E395E00E94DE158823A9F5CF
S1132AB020E030E040E050E06091000170910101BD
S1132AC080910201909103010E945C1C18161CF372
S1132AD00E9401198823F9F280E090E0A0E0BFE3AE
S1132AE08093000190930101A0930201B09303012C
S1132AF00E94DE168CE890E00E9493170E94511801
S1132B000E946D180E94CE180E94C4180E940119D8
S1132B10882329F20E944207C2CF0E94450A2091CD
S1132B20A7053091A8054091A9055091AA05609187
S1132B3000017091010180910201909103010E94B2
S1132B40AC1B609300017093010180930201909388
S1132B500301AECF8091F801E7ECF0E0E80FF11D3E
S1132B60E491E093FA01E091FA01FF27EE0FFF1FD1
S1132B70319620EF30E0E20FF31FE49183B18F71BF
S1132B80E295EE0FE07E8E2B83B9E091FA01FF27E8
S1132B90EE0FFF1FE20FF31FE491E7B9369A089591
S1132BA01092620010926100479A8FE886B91092E1
S1132BB0F8010E94AA15089533980895CF93DF93DE
S1132BC09C01DB01F894E42FFF27E35AF94F90812D
S1132BD08C91891751F180818C93E901A0E0B0E0D8
S1132BE040E050E020E030E0BD01660F771F660F43
S1132BF0771F660F771FFB01E20FF31FEE0FFF1F16
S1132C00E85FFE4F80819181480F591F2F5F3F4F2E
S1132C102830310581F7499359931196AF30B105A6
S1132C20F9F6789481E090E003C0789480E090E035
S1132C30DF91CF9108951F920F920FB60F92112436
S1132C402F933F934F935F936F937F938F939F93B0
S1132C50AF93BF93EF93FF9340E050E0A091FA014C
S1132C60BB279A01E091FA01FF274F5F5F4FEE0FF8
S1132C70FF1FEE0FFF1FEE0FFF1FE40FF51FEE0FF8
S1132C80FF1FE85FFE4F80819181AA0FBB1FAA0F2F
S1132C90BB1FAA0FBB1FA20FB31FAA0FBB1FA85FA6
S1132CA0BE4F11969C938E9347305105B9F6E0912F
S1132CB0FA01FF2784B195B1E295F295F07FFE27E2
S1132CC0E07FFE27E85FFE4F97878687E091FA0151
S1132CD0FF27E35AF94F80818F5F80838091F80149
S1132CE08F5F8093F8018091F801893238F0109257
S1132CF0F8018091F9018F5F8093F9010E94AA1570
S1132D00FF91EF91BF91AF919F918F917F916F91BF
S1132D105F914F913F912F910F900FBE0F901F9095
S1132D20189508958091F9018A30E0F30895EEE052
S1132D30F5E0E80FF11DE4918E2F992787FD90951A
S1132D40089587E089B9119A1092760680917606E3
S1132D5080937506539A0895282FE09175069E2F47
S1132D609F5F80917606981749F4809107058F5FDD
S1132D7080930705809176069817E1F3FF27E150C9
S1132D80FD4F208390937506559A0895982FE091EE
S1132D907506EF5F2E2F3327E15080917606821758
S1132DA051F0FF27E150FD4F908320937506559A0B
S1132DB081E090E0089580E090E0089580E00E9432
S1132DC0AC1681E080936E068091750680936F0641
S1132DD08F5F8093700610927106109272061092A3
S1132DE07306109274060895CF93DF93DB01EB0111
S1132DF0EB814E2F5527440F551F440F551F2EE0CE
S1132E0031E0F9013396E40FF51FE4919A819E278E
S1132E109B83F9013296E40FF51FE49199819E2773
S1132E209A83F9013196E40FF51FE4919C919E2752
S1132E309983420F531FFA01949198279C93DF9131
S1132E40CF910895682F40917006942F9F5F8091D1
S1132E5076069817E1F180917606592F5F5F851702
S1132E60C1F16623A1F4E0916F06FF27E150FD4F05
S1132E7080916E068064808340936F069093700601
S1132E8081E080936E0640937506559A0895E42F69
S1132E90FF27E150FD4F60839093700680916E068A
S1132EA08F5F80936E06883309F00895E0916F0672
S1132EB0FF27E150FD4F808390936F065093700677
S1132EC081E080936E0690937506559A0895592F64
S1132ED05F5F809107058F5F80930705252F332758
S1132EE0809176069817E1F3809176068217C1F3F4
S1132EF0B8CF1F93182F61E776E00E94F416812F54
S1132F000E9422171F910895CF93DF93EC018881CB
S1132F10882331F021960E94791788818823D1F77C
S1132F20DF91CF910895CF93DF93FC01849188239F
S1132F3051F0EF0121960E947917FE012196E49148
S1132F408E2FEE23C1F7DF91CF9108950F931F9336
S1132F508C010E947917012F1127802F0E94791765
S1132F601F910F9108950F931F938C010E9479175D
S1132F70012F110F110B802F0E9479171F910F91B0
S1132F800895EF92FF920F931F937B018C01862F7C
S1132F900E947917BB27A12F902F8F2D0E9479179C
S1132FA0C801AA27BB270E947917E12EFF24002716
S1132FB011278E2D0E9479171F910F91FF90EF908A
S1132FC00895EF92FF920F931F937B018C01862F3C
S1132FD00E947917BB2717FDBA95A12F902F8F2D2B
S1132FE00E947917C801BB2797FDB095AB2F0E94AB
S1132FF07917E12E1127E7FC1095F12E012F8E2D64
S11330000E9479171F910F91FF90EF9008951F93DD
S1133010182F82958F700E9497160E947917812F1E
S11330208F700E9497160E9479171F9108950F932D
S11330301F938C01892F992782958F708F700E941E
S113304097160E947917812F99278F700E949716DF
S11330500E947917C801929582958F7089279F7075
S113306089278F700E9497160E947917802F8F707E
S11330700E9497160E9479171F910F910895EF925D
S1133080FF920F931F937B018C01AA27BB270E94F9
S11330901718C7010E9417181F910F91FF90EF9006
S11330A00895CF93DF93C1E7D6E089910E94221758
S11330B086E0C537D807C9F7E0916F06FF27E150CE
S11330C0FD4F80916E0680688083809170068093A6
S11330D07506559ADF91CF91089510926D06089563
S11330E00F931F93CF93DF93EC01062F18811123C5
S11330F0D9F080916D06882399F40E94DE1686E447
S11331000E94791781E080936D06802F0E947917C1
S11331108DE30E947917812F0E940718188204C03A
S113312080E20E947917F1CFDF91CF911F910F9127
S11331300895FF920F931F93CF93DF93EC018B01BC
S1133140F880FF20D9F080916D06882399F40E94BD
S1133150DE1686E40E94791781E080936D06C8012B
S11331600E9484178DE30E9479178F2D0E940718FF
S1133170188204C080E20E947917F1CFDF91CF91C9
S11331801F910F91FF90089580916D06882309F493
S1133190089510926D060E94511808950F931F937D
S11331A00FEF14E06FE4C8010E94701866E4C801D0
S11331B002960E94701868E4C80101960E94701873
S11331C060E5C80103960E94701863E5C80104967F
S11331D00E94701863E4C80105960E9470186AE59D
S11331E0C80106960E94701864E5C80107960E94FB
S11331F0701867E5C80108960E9470181F910F9116
S113320008959091760620E030E080917506891744
S113321011F421E030E0C90108959091760680917F
S11332207506891B99270895CF93DF93EC01888154
S1133230882331F021960E94AC1688818823D1F727
S1133240DF91CF910895CF93DF93FC01849188237C
S113325051F0EF0121960E94AC16FE012196E491F3
S11332608E2FEE23C1F7DF91CF9108951F93182F6E
S113327082958F700E9497160E94AC16812F8F70D2
S11332800E9497160E94AC161F9108950F931F93E6
S11332908C01892F992782958F708F700E949716C1
S11332A00E94AC16812F99278F700E9497160E9456
S11332B0AC16C801929582958F7089279F708927D3
S11332C08F700E9497160E94AC16802F8F700E94F8
S11332D097160E94AC161F910F910895EF92FF92DA
S11332E00F931F937B018C01C801AA27BB270E945F
S11332F04619C7010E9446191F910F91FF90EF9044
S113330008950E94AC1608950F931F938C010E9498
S1133310AC16012F1127802F0E94AC161F910F911C
S113332008950F931F938C010E94AC16012F110F67
S1133330110B802F0E94AC161F910F910895EF92EC
S1133340FF920F931F937B018C01862F0E94AC1672
S11333508F2D0E94AC16802F0E94AC16812F0E94E4
S1133360AC161F910F91FF90EF9008951F920F924A
S11333700FB60F9211242F933F934F935F936F9344
S11333808F939F93EF93FF939BB16CB180917706DA
S11333908F5F482F552780916C06841739F1292FA8
S11333A0332724FD1BC023FD11C022FD09C0E09179
S11333B07706FF27E150FC4F6083409377061BC0DC
S11333C0809102058F5F80930205F1CF8091000503
S11333D08F5F8093000522FFEACFF2CF8091010531
S11333E08F5F8093010523FFE0CFF0CF8091FF042E
S11333F08F5F8093FF04FF91EF919F918F916F9165
S11334005F914F913F912F910F900FBE0F901F909E
S1133410189590916C06809177068917E1F3E92F4E
S1133420FF27E150FC4F80819F5F90936C069927A2
S113343008950F931F930E94091A082F0E94091AD6
S11334409927982F88271127802B912B1F910F9153
S11334500895E0916C06809177068E17E1F3FF27BB
S1133460E150FC4F8081992708959091770620E0E0
S113347030E080916C06981711F421E030E0C90126
S113348008954F925F926F927F928F929F92AF9224
S1133490BF92CF92DF92EF92FF920F931F93CF933D
S11334A0DF93CDB7DEB724970FB6F894DEBF0FBE17
S11334B0CDBF3C010091FE01B090FB01A090FC0146
S11334C01091FD010E94351A882399F40E94091A6B
S11334D08823D1F4002329F0809106058F5F80931F
S11334E0060500E0BB24AA2410E00E94351A8823B4
S11334F069F30093FE01B092FB01A092FC011093CA
S1133500FD0180E090E08DC0112309F067C0182F01
S11335101F73A82EAA1CAA24AA1C99270024880F6A
S1133520991F001C880F991F001C892F902D21E0E2
S1133530B22EB822113031F6BB2031F0E02FFF2734
S1133540E150FE4F10820F5FAA2009F458C00530E5
S113355008F457C019821A821B821C82802E992477
S11335609CEFE92E9FEFF92EE80CF91C1E141F04A2
S11335700CF04EC010E0E0E0F0E08FEF482E81E068
S1133580582E6E010894C11CD11CE150FE4FB601A7
S113359080810E94F4161F5FE12FFF27EE15FF05BF
S11335A0A4F3F401E550FE4FD6019F012C5F3F4F79
S11335B09D9181919817E9F4E217F307C9F7B09246
S11335C0FB01A092FC011092FD01F30151824082A3
S11335D01092FE010450802F992723C0123008F462
S11335E0A9CFE02FFF27E150FE4F80830F5F1150DA
S11335F0A1CF809104058F5F8093040500E010E063
S113360061CF809103058F5F8093030500E0F7CFBE
S1133610BFEF4B2EB1E05B2E6E010894C11CD11C90
S1133620C0CF24960FB6F894DEBF0FBECDBFDF9196
S1133630CF911F910F91FF90EF90DF90CF90BF90AB
S1133640AF909F908F907F906F905F904F90089570
S11336508091770690916C06891B992708951092A2
S11336606C0610927706109818988AB180698AB906
S113367008951F920F920FB60F9211248F939F9368
S1133680EF93FF939091760680917506891771F0F8
S1133690E0917606FF27E150FD4F80818CB980913F
S11336A076068F5F99278093760601C05598FF911F
S11336B0EF919F918F910F900FBE0F901F901895CF
S11336C04BB14423CCF0242F332726FF14C0909110
S11336D0760680917506891771F04BB9E0917606EC
S11336E0FF27E150FD4F80818CB9809176068F5F72
S11336F099278093760608959CB1809177068F5F11
S1133700682F772780916C06861701F1242F3327C1
S113371024FF05C0809101058F5F8093010523FF7D
S113372005C0809100058F5F8093000522FF05C0CE
S1133730809102058F5F80930205E0917706FF2751
S1133740E150FC4F908360937706BFCF8091FF04D4
S11337508F5F8093FF04B7CF5058192EEFD001D05C
S1133760D2C0BA176207730784079507B1F188F4CA
S11337700EF410940B2EBA2FA02D062E622F202D9E
S1133780072E732F302D082E842F402D092E952FB0
S1133790502DFF275523B9F0591B49F0573E98F097
S11337A0469537952795A795F0405395C9F776F038
S11337B0BA0F621F731F841F30F48795779567953E
S11337C0B795F040939517FA0F2E0895BF1BBB27AA
S11337D0BA0B620B730B840BF6CFDEF6DBC0AED0F4
S11337E001D091C0552359F0992369F09F575F5731
S11337F0951B33F442F4903811F4915805C09BC0E2
S113380091589F3F09F4C6C0BB2711246217730760
S1133810840730F4660F771F881FBB1F915098F3FD
S113382011D00F920FD00F920DD0A0E826173707B2
S113383048071B0609F0A048BA2F602D7F918F918D
S113384000240895A0E80024621773078407B105D3
S113385028F0621B730B840BB1090A2A660F771FC9
S1133860881FBB1FA69581F7089597FB73D09F37D8
S113387038F0FEE9F91B982F872F762F6B2F05C0A0
S113388086C09695879577956795F150D0F73EF465
S113389090958095709561957F4F8F4F9F4F0895B8
S11338A0E89403C097FB0EF4F3DFB62F672F782F4D
S11338B0892F9EE9002427C00ED05EF004C00BD0EF
S11338C026F001C008D019F020F48FEF089580E0AD
S11338D0089581E0089597FB092E052600F8689461
S11338E030D0E89407FC07C0621773078407950774
S11338F021F008F400940794989408959A95BB0FC6
S1133900661F771F881F11249923A1F08823B2F71B
S11339109F3F59F0BB0F48F421F4002011F460FFDD
S113392004C06F5F7F4F8F4F9F4F881F9795879578
S113393097F908952CC09FEF80EC0895052E092671
S113394007FA440F551F5F3F79F0AA27A51708F01F
S113395051E04795880F991F9F3F31F0BB27B91756
S113396008F091E0879508959F919F911124E3CFEA
S113397097FB880F991F9F3F31F0BB27B91708F0B9
S113398091E0879508959F919F911124D4CF662744
S11339907727882799270895D1DF01D0B4CF9923B9
S11339A039F0552329F09F575F57950F13F49AF177
S11339B0F1CF91589F3FE1F3629FA12D0F92BB2756
S11339C0639FA00DB11DEE27729FA00DB11DEE1FC8
S11339D0AF93AA27649FB00DE11D739FB00DE11D45
S11339E0AA1F6627829FB00DE11DA61F5527749F4D
S11339F0E00DA11D551F839FE00DA11D561F849F3F
S1133A00A00D511D852F7A2F6E2F1F900F908823A4
S1133A101AF4939539F48FCF000C111CBB1F661F49
S1133A20771F881F0128089509D001921A94E1F79D
S1133A30089501900BD01A94E1F70895E199FECF0F
S1133A40BFBBAEBBE09A11960DB20895E199FECFCB
S1133A50BFBBAEBB0DBA11960FB6F894E29AE19AC9
S1073A600FBE0895F4
S1073A64000000401A
S9030000FC
