S02100006275696C642E53454757454C4C322F626F6F746C6F616465722E7372656326
S21401F8000C9446FC0C9463FC0C9463FC0C9463FC13
S21401F8100C9463FC0C9463FC0C9463FC0C9463FCE6
S21401F8200C9463FC0C9463FC0C9463FC0C9463FCD6
S21401F8300C9463FC0C9463FC0C9463FC0C9463FCC6
S21401F8400C9463FC0C9463FC0C9463FC0C9463FCB6
S21401F8500C9463FC0C9463FC0C9463FC0C9463FCA6
S21401F8600C9463FC0C9463FC0C9463FC0C9463FC96
S21401F8700C9463FC0C9463FC0C9463FC0C9463FC86
S21401F8800C9463FC0C9463FC0C9463FC11241FBE63
S21401F890CFEFD0E1DEBFCDBF11E0A0E0B1E0EAE7F7
S21401F8A0FEEF01E00BBF02C007900D92A030B1073A
S21401F8B0D9F711E0A0E0B1E001C01D92A030B10778
S21401F8C0E1F70C94E8FD0C9400FC87E089B988E127
S21401F8D08AB908955D9BFECF8CB908955F9BFECFD4
S21401F8E08CB1992787FD909508950F931F930E94D9
S21401F8F06EFC082F0E946EFC9927982F88271127E7
S21401F900802B912B1F910F9108958A3028F4805DEA
S21401F910992787FD90950895895A992787FD90958F
S21401F92008954F925F926F927F928F929F92AF92BD
S21401F930BF92CF92DF92EF92FF920F931F93CF93D6
S21401F940DF93CDB7DEB7C058D0400FB6F894DEBF10
S21401F9500FBECDBF5C016A01653409F05BC03C0196
S21401F96088249924892BB9F0EE24FF2487012E01DF
S21401F9700894411C511C0E946EFCF201EE0DFF1D05
S21401F98080830894E11CF11C011D111D6E147F0477
S21401F9908006910681F78091680080FDFCCFAB2838
S21401F9A009F494C020E030E040E050E0BE016F5F13
S21401F9B07F4FF60180819181A281B3818EBB8081C8
S21401F9C09181A281B381892F9A2FAB2FBB27A7FDE7
S21401F9D0BA958FBBFB01E20FF31F80818DBBE29AC4
S21401F9E0E19AE199FECFF60180819181A281B381EE
S21401F9F00196A11DB11D80839183A283B3832F5FDE
S21401FA003F4F4F4F5F4F621673068406950609F403
S21401FA105DC0CFCF663409F05CC0FA018081918168
S21401FA20A281B3818030F8EF9F07F1E0AF07F0E0E5
S21401FA30BF070CF04EC0880F991FAA1FBB1FFA0103
S21401FA4080839183A283B3833C014D0111E00E9420
S21401FA5075FCF60120813181428153810C01F90147
S21401FA6040935B0010936800E89511242E5F3F4F8A
S21401FA704F4F5F4FF60120833183428353838EEFCE
S21401FA809FEFA80EB91EA114B10409F785E0F30192
S21401FA9080925B0080936800E895E8E6F0E080815C
S21401FAA080FDFDCF81E180936800E895F6018081B5
S21401FAB09181A281B381B595A79597958795808306
S21401FAC09183A283B3838DE090E005C08DE090E042
S21401FAD002C08FE390E0C058DF4F0FB6F894DEBF48
S21401FAE00FBECDBFDF91CF911F910F91FF90EF9089
S21401FAF0DF90CF90BF90AF909F908F907F906F9048
S21401FB005F904F9008950F931F93CF93DF938C01CF
S21401FB10EA01653419F588819981AA81BB818EBB7A
S21401FB2088819981AA81BB81892F9A2FAB2FBB2708
S21401FB30A7FDBA958FBB88819981AA81BB81019661
S21401FB40A11DB11D88839983AA83BB83E09A8DB3D7
S21401FB500E946AFC01501040B1F1DDCF663499F580
S21401FB6088819981AA81BB81880F991FAA1FBB1F13
S21401FB7088839983AA83BB8388819981AA81BB8163
S21401FB80FC0184910E946AFC88819981AA81BB81CB
S21401FB90FC01319684910E946AFC88819981AA8130
S21401FBA0BB810296A11DB11D88839983AA83BB835D
S21401FBB00250104009F7B595A795979587958883C4
S21401FBC09983AA83BB83DF91CF911F910F910895EB
S21401FBD0BF92CF92DF92EF92FF920F931F93CF9334
S21401FBE0DF93CDB7DEB724970FB6F894DEBF0FBE0E
S21401FBF0CDBFF8940E9465FCCC24DD24760100E09C
S21401FC00BB245F9B20C08CB1B3949FE09B1508F486
S21401FC10FFCF033018F4013050F405C0033059F01B
S21401FC20043089F40CC0843571F401E00CC08F36C1
S21401FC3049F40F5F08C0823629F404E004C081321B
S21401FC4009F44BC000E00894C11CD11CE11CF11C56
S21401FC5080E0C81680E2D80680E0E80680E0F80674
S21401FC6041F514B787E50E946AFC8DE30E946AFCA1
S21401FC70812F82958F700E9485FC0E946AFC812FDD
S21401FC808F700E9485FC0E946AFC80E20E946AFCDA
S21401FC9014BE82E40E946AFC8FE60E946AFC8FE62C
S21401FCA00E946AFC84E70E946AFC8FE30E946AFC59
S21401FCB0A8CF90E0C91690E0D90694E0E90690E056
S21401FCC0F90609F09ECF8DE00E946AFC8AE00E9448
S21401FCD06AFCE0E0F0E0099594CF0E946EFC6E01AC
S21401FCE00894C11CD11C0F2EF9E0FF2EF02D813493
S21401FCF061F40E9475FCAA27BB2789839A83AB838C
S21401FD00BC838DE00E946AFC98C0853621F520E010
S21401FD1030E040E050E0A8E6B0E093E08C9180FD52
S21401FD20FDCFF90140935B0090936800E895205859
S21401FD303F4F4F4F5F4F203088EF380781E048072D
S21401FD4080E058075CF329833A834B835C838DE01C
S21401FD500E946AFC72C0823651F489E50E946AFCF0
S21401FD6080E00E946AFC80E80E946AFC66C08234D9
S21401FD7069F40E9475FC8C010E946EFCA601682F36
S21401FD80C8010E9491FC0E946AFC57C0873659F44C
S21401FD900E9475FC8C010E946EFCA601682FC801AA
S21401FDA00E9483FD4AC08335B1F481E40E946AFC57
S21401FDB086E50E946AFC82E50E946AFC82E40E9453
S21401FDC06AFC8FE40E946AFC8FE40E946AFC84E568
S21401FDD00E946AFC32C0833751F482E00E946AFCBA
S21401FDE085E90E946AFC8EE10E946AFC26C08C347A
S21401FDF0E9F4E0E0F0E0F092680084910E946AFC89
S21401FE00E1E0F0E0F092680084910E946AFCE2E092
S21401FE10F0E0F092680084910E946AFCE3E0F0E072
S21401FE20F092680084910E946AFC07C0813741F015
S21401FE308B3119F08FE30E946AFC0E946EFC57CF4B
S21401FE408091680080FDFCCF81E180936800E89591
S21401FE50E0E0F0E0099580E090E024960FB6F89493
S21401FE60DEBF0FBECDBFDF91CF911F910F91FF90E7
S20E01FE70EF90DF90CF90BF90089549
S80401F80002
