S01B00006275696C642E4A4F5244414E5741592F62616C2E73726563BE
S11300000C9496020C94B3020C94B3020C94B302B5
S11300100C94B3020C94B3020C94B3020C94B30288
S11300200C94B3020C94B3020C94B3020C94B30278
S11300300C94B3020C94B3020C94B3020C94B30268
S11300400C94B3020C94B3020C947C1E0C94791A95
S11300500C94B3020C94E5190C94B3020C94B302FF
S11300600C94B3020C94B3020C94B3020C94B30238
S11300700C94B3020C94B3020C94B3020C94B30228
S11300800C94B3020C94B3020C94B302216C72006E
S1130090216C660021727200217266002162616C1B
S11300A0616E63655F76616C696461746520666125
S11300B0696C730A002162616C20322E3000216267
S11300C0616C20322E300040004100420043004564
S11300D000440046004601460246034604460546DF
S11300E006460747074706470547044703470247AD
S11300F00147000001020405100E0A000102040574
S113010010130B000102040510120C000102040577
S113011010150D000102040510141100000000B7B1
S11301201DC1046E3B8209D926430DDC7604136B92
S11301306BC517B24D861A0550471EB8ED08260F39
S1130140F0C922D6D68A2F61CB4B2B649B0C35D3B6
S113015086CD310AA08E3CBDBD4F3870DB114CC733
S1130160C6D0481EE09345A9FD5241ACAD155F1BB6
S1130170B0D45BC2969756758B5652C836196A7FAF
S11301802BD86EA60D9B6311105A6714401D79A3DA
S11301905DDC7D7A7B9F70CD665E74E0B6239857F4
S11301A0ABE29C8E8DA191399060953CC0278B8BDE
S11301B0DDE68F52FBA582E5E66486585B2BBEEF35
S11301C046EABA3660A9B7817D68B3842D2FAD3372
S11301D030EEA9EA16ADA45D0B6CA0906D32D42765
S11301E070F3D0FE56B0DD494B71D94C1B36C7FBBA
S11301F006F7C32220B4CE953D75CA28803AF29FF3
S11302009DFBF646BBB8FBF1A679FFF4F63EE1434D
S1130210EBFFE59ACDBCE82DD07DEC77708634C039
S11302206D4730194B043DAE56C539AB0682271CC9
S11302301B4323C53D002E7220C12ACF9D8E127808
S1130240804F16A1A60C1B16BBCD1F13EB8A01A46D
S1130250F64B057DD00808CACDC90C07AB9778B01A
S1130260B6567C69901571DE8DD475DBDD936B6CAD
S1130270C0526FB5E6116202FBD066BF469F5E08AE
S11302805B5E5AD17D1D576660DC5363309B4DD451
S11302902D5A490D0B1944BA16D84097C6A5AC205F
S11302A0DB64A8F9FD27A54EE0E6A14BB0A1BFFC95
S11302B0AD60BB258B23B69296E2B22F2BAD8A9804
S11302C0366C8E41102F83F60DEE87F35DA99944A9
S11302D040689D9D662B902A7BEA94E71DB4E0500C
S11302E00075E4892636E93E3BF7ED3B6BB0F38CB1
S11302F07671F7555032FAE24DF3FE5FF0BCC6E872
S1130300ED7DC231CB3ECF86D6FFCB8386B8D534C4
S11303109B79D1EDBD3ADC5AA0FBD8EEE00C6959CB
S1130320FDCD6D80DB8E6037C64F643296087A85CA
S11303308BC97E5CAD8A73EBB04B77560D044FE1ED
S113034010C54B383686468F2B47428A7B005C3D6E
S113035066C158E4408255535D43519E3B1D252997
S113036026DC21F0009F2C471D5E28424D1936F5EE
S113037050D8322C769B3F9B6B5A3B26D615039163
S1130380CBD40748ED970AFFF0560EFAA011104D92
S1130390BDD014949B93192386521D0E562FF1B988
S11303A04BEEF5606DADF8D7706CFCD2202BE26596
S11303B03DEAE6BC1BA9EB0B0668EFB6BB27D701E9
S11303C0A6E6D3D880A5DE6F9D64DA6ACD23C4DDAA
S11303D0D0E2C004F6A1CDB3EB60C97E8D3EBDC9A9
S11303E090FFB910B6BCB4A7AB7DB0A2FB3AAE1572
S11303F0E6FBAACCC0B8A77BDD79A3C660369B71A7
S11304007DF79FA85BB4921F4675961A163288AD85
S11304100BF38C742DB081C330718599908A5D2E55
S11304208D4B59F7AB085440B6C95045E68E4EF291
S1130430FB4F4A2BDD0C479CC0CD43217D827B962C
S113044060437F4F460072F85BC176FD0B86684AB5
S113045016476C93300461242DC565E94B9B115EEE
S1130460565A1587701918306DD81C353D9F028275
S1130470205E065B061D0BEC1BDC0F51A69337E6D2
S1130480BB52333F9D113E8880D03A8DD097243A99
S1130490CD5620E3EB152D54F6D4297926A9C5CEE3
S11304A03B68C1171D2BCCA000EAC8A550ADD612DD
S11304B04D6CD2CB6B2FDF7C76EEDBC1CBA1E37628
S11304C0D660E7AFF023EA18EDE2EE1DBDA5F0AA71
S11304D0A064F4738627F9C49BE6FD09FDB889BEC0
S11304E0E0798D67C63A80D0DBFB84D58BBC9A62F9
S11304F0967D9EBBB03E930CADFF97B110B0AF0696
S11305000D71ABDF2B32A66836F3A26D66B4BCDA8C
S11305107B75B8035D36B5B440F7B130313233344E
S113052035363738396162636465660011241FBE4D
S1130530CFEFD0E1DEBFCDBF11E0A0E0B1E0E2E952
S1130540F1E400E00BBF02C007900D92AC30B1079C
S1130550D9F717E0ACE0B1E001C01D92A731B107B3
S1130560E1F70C94EA180C940000C598AE98AB9887
S1130570AA98BD9AA69AA39AA29AC698AD98A99841
S1130580A898BE9AA59AA19AA09AAC98A49A97986A
S113059096988F9A8E9A1A9A129A83B18F7183B908
S11305A082B1806E82B908954F925F926F927F926A
S11305B08F929F92AF92BF92CF92DF92EF92FF926F
S11305C00F931F93CF93DF93EC0148015901260148
S11305D037019A01AB0160E070E080E89FE30E947C
S11305E0861FDC01CB019C01AD01C501B4010E9451
S11305F063207B018C0120E030E040E85FE30E944F
S1130600F61F181654F40F2EF0E0EF2EF0E0FF2E34
S1130610F0E80F2FFFE31F2FF02DA8019701C3016E
S1130620B2010E9463205B016C01A801970160E0A4
S113063070E080E89FE30E94431FDC01CB01E88067
S1130640F9800A811B819C01AD01C801B7010E9498
S11306506320DC01CB019C01AD01C601B5010E9400
S1130660441FDC01CB0188839983AA83BB83DF9178
S1130670CF911F910F91FF90EF90DF90CF90BF909B
S1130680AF909F908F907F906F905F904F90089560
S1130690EF92FF920F931F937B018C0120E030E0D7
S11306A040E050E00E94F61F88231CF0C801B70107
S11306B003C0C801B70190581F910F91FF90EF90AC
S11306C00895AF92BF92CF92DF92EF92FF920F9371
S11306D01F935B016C0179018A010E94F61F882334
S11306E01CF0A601950102C0A8019701CA01B90135
S11306F01F910F91FF90EF90DF90CF90BF90AF903C
S11307000895AF92BF92CF92DF92EF92FF920F9330
S11307101F935B016C0179018A010E94F31F181673
S11307201CF0A601950102C0A8019701CA01B901F4
S11307301F910F91FF90EF90DF90CF90BF90AF90FB
S113074008956F927F928F929F92AF92BF92CF92B1
S1130750DF92EF92FF920F931F935B016C013901BB
S11307604A01A80197010E94F61F18166CF0A40113
S11307709301C601B5010E94F31F88231CF4840170
S1130780730102C086017501C801B7011F910F9161
S1130790FF90EF90DF90CF90BF90AF909F908F909D
S11307A07F906F9008956F927F928F929F92AF92F5
S11307B0BF92CF92DF92EF92FF920F931F93CF934A
S11307C0DF93EC013A014B01780189018889882380
S11307D029F45A016B0181E0888B04C0AC80BD8090
S11307E0CE80DF80A6019501C401B3010E94431F9E
S11307F0DC01CB0188879987AA87BB87A801970169
S1130800BC01CD010E9463207B018C018881998108
S1130810AA81BB81A8019701BC01CD010E94441F9C
S1130820DC01CB0188839983AA83BB832AE939E954
S113083049E95EE3C801B7010E946320DC01CB01F2
S11308409C01AD01C601B5010E94441F6C837D83E8
S11308508E839F83DF91CF911F910F91FF90EF9033
S1130860DF90CF90BF90AF909F908F907F906F90CC
S113087008958F929F92AF92BF92CF92DF92EF92A0
S1130880FF920F931F93CF93DF934C01EB01DA0197
S113089078018901FC018189882329F45A016B01BB
S11308A081E0818B05C0F401A080B180C280D38037
S11308B0A6019501BD01CE010E94431FDC01CB01BD
S11308C0A8019701BC01CD010E9463207B018C012A
S11308D0F40184859585A685B78520E030E040E065
S11308E050E4BC01CD010E94441FDC01CB019C01FA
S11308F0AD0160E070E080E89FE30E94861FDC01A8
S1130900CB019C01AD01C801B7010E946320DC0149
S1130910CB019C01AD01C601B5010E94441FF40145
S11309206083718382839383DF91CF911F910F91B1
S1130930FF90EF90DF90CF90BF90AF909F908F90FB
S113094008959F92AF92BF92CF92DF92EF92FF925F
S11309500F931F93CF93DF93EC01DB0159016A01DD
S1130960992480910C018F5F80930C01882311F4EA
S113097081E0982E0F2EF0E0EF2EF0E0FF2EF0E84D
S11309800F2FFFE31F2FF02D20E030E040E85FEB56
S1130990BD01CE010E94A10323E333EF4FEF53E4E3
S11309A00E946320DC01CB01BC01CD010E94CC1F5D
S11309B0DC01CB01EC018EEFC430D80714F4C4E0A1
S11309C0DEEF81E0CD3FD80714F0CCEFD1E00F2E5D
S11309D0F0E0EF2EF0E0FF2EF0E80F2FFFE31F2FE3
S11309E0F02D20E030E040E85FEBC601B5010E9445
S11309F0A10323E333EF4FEF53E40E946320DC01B0
S1130A00CB01BC01CD010E94CC1FDC01CB018C01C8
S1130A108EEF0430180714F404E01EEF81E00D3F5C
S1130A20180714F00CEF11E0F894D7FD3DC0A99815
S1130A30AD9AA89AD9BDC8BD992071F417FD19C003
S1130A40AB98AE9AAA9ACFEFD1E0C01BD10BDBBD15
S1130A50CABD9920C9F11CC00E94CA1A80E990E05D
S1130A600E94701BCE010E94F11B0E94331C17FFD1
S1130A70E7CFAA98AE9AAB9AE801C150DE4FDBBD2E
S1130A80CABD992009F10E94CA1A84E990E004C001
S1130A900E94CA1A88E990E00E94701BCE010E944D
S1130AA0F11B0E94331C10C0A898AD9AA99AD09546
S1130AB0C195DF4FD9BDC8BD992009F4BFCF0E94AD
S1130AC0CA1A8CE890E0CCCF7894DF91CF911F9133
S1130AD00F91FF90EF90DF90CF90BF90AF909F90D9
S1130AE0089580E090E09BBD8ABDAE98AB98AA982B
S1130AF099BD88BDAD98A998A8980895FA018083F6
S1130B0081816183962F981B97FD05C097FD02C0D4
S1130B1087FD0EC0089587FDF9CF67FFF7CF838166
S1130B20815083838F3FB1F78481815084830895FA
S1130B3067FDF0CF83818F5F8383882359F7848196
S1130B408F5F84830895AF92BF92CF92DF92EF922A
S1130B50FF920F931F935B016C0180914306909168
S1130B604406A0914506B0914606A6019501BC0134
S1130B70CD010E946320DC01CB01E0909F05F09041
S1130B80A0050091A1051091A2059C01AD01C80129
S1130B90B7010E94431FDC01CB0180939F05909312
S1130BA0A005A093A105B093A2058091470690915A
S1130BB04806A0914906B0914A06A6019501BC01D8
S1130BC0CD010E946320DC01CB01E090A305F090ED
S1130BD0A4050091A5051091A6059C01AD01C801CD
S1130BE0B7010E94431FDC01CB018093A3059093BE
S1130BF0A405A093A505B093A60580913B0690910A
S1130C003C06A0913D06B0913E06A6019501BC01AB
S1130C10CD010E946320DC01CB01E090A705F09098
S1130C20A8050091A9051091AA059C01AD01C80170
S1130C30B7010E94431FDC01CB018093A705909369
S1130C40A805A093A905B093AA0580914F06909199
S1130C505006A0915106B0915206A6019501BC011F
S1130C60CD010E946320DC01CB01E090AB05F09044
S1130C70AC050091AD051091AE059C01AD01C80114
S1130C80B7010E94431FDC01CB018093AB05909315
S1130C90AC05A093AD05B093AE0580913306909159
S1130CA03406A0913506B09136069C01AD0160E092
S1130CB070E080E89FE30E94861FDC01CB0120E006
S1130CC030E040E85FE3BC01CD010E94431FDC013A
S1130CD0CB01A6019501BC01CD010E946320DC017A
S1130CE0CB01E090AF05F090B0050091B1051091F3
S1130CF0B2059C01AD01C801B7010E94441FDC018B
S1130D00CB018093AF059093B005A093B105B09348
S1130D10B2051F910F91FF90EF90DF90CF90BF909D
S1130D20AF900895EF92FF920F931F93CF93DF93A9
S1130D30EC01E880F9800A811B8120E030E040E08A
S1130D4050ECC801B7010E94F31F87FD0AC020E0E0
S1130D5030E040E050E4C801B7010E94F61F1816C5
S1130D601CF480E090E064C0EC80FD800E811F8163
S1130D7020E030E040E050ECC801B7010E94F31FCE
S1130D8087FDEFCF20E030E040E050E4C801B70138
S1130D900E94F61F18162CF3E884F9840A851B8533
S1130DA020E030E040EA50ECC801B7010E94F31F94
S1130DB087FDD7CF20E030E040EA50E4C801B70116
S1130DC00E94F61F18166CF2EC84FD840E851F85B4
S1130DD020E030E040EA50ECC801B7010E94F31F64
S1130DE087FDBFCF20E030E040EA50E4C801B701FE
S1130DF00E94F61F18160CF4B4CFE888F9880A8903
S1130E001B8920E030E040E85FE3C801B7010E949D
S1130E10F31F87FDA6CF20E030E040EA50E4C8018C
S1130E20B7010E94F61F18160CF49BCF81E090E0E6
S1130E30DF91CF911F910F91FF90EF900895EF9262
S1130E40FF920F931F93CF93DF93EC01E880F98017
S1130E500A811B8120E030E040E050E0C801B70186
S1130E600E94F31F87FD0AC020E030E048EC52E402
S1130E70C801B7010E94F61F18161CF480E090E028
S1130E807DC0EC80FD800E811F8120E030E040E0D9
S1130E9050E0C801B7010E94F31F87FDEFCF20E0A7
S1130EA030E040EF51E4C801B7010E94F61F181664
S1130EB02CF3E884F9840A851B8520E030E040E0C7
S1130EC050E0C801B7010E94F31F87FDD7CF20E08F
S1130ED030E048EC52E4C801B7010E94F61F18162E
S1130EE06CF2EC88FD880E891F892AE037ED43E215
S1130EF05CE3C801B7010E94F31F87FDBFCF20E068
S1130F0030E040EA50E4C801B7010E94F61F181609
S1130F100CF4B4CFE88CF98C0A8D1B8D20E030E002
S1130F2040E050E0C801B7010E94F31F87FDA6CF3F
S1130F3020E030E040E050E4C801B7010E94F61F11
S1130F4018160CF49BCFEC8CFD8C0E8D1F8D20E0BD
S1130F5030E040E050E0C801B7010E94F31F87FD74
S1130F608DCF20E030E040E050E4C801B7010E949A
S1130F70F61F18160CF482CF81E090E0DF91CF9138
S1130F801F910F91FF90EF900895EF92FF920F93AE
S1130F901F93CF93DF93EC01E880F9800A811B81D2
S1130FA020E030E040E05FEBC801B7010E94F31F8E
S1130FB087FD0AC020E030E040E05FE3C801B701EC
S1130FC00E94F61F18161CF480E090E01AC0EC8012
S1130FD0FD800E811F8120E030E040E85FEBC80116
S1130FE0B7010E94F31F87FDEFCF20E030E040E817
S1130FF05FE3C801B7010E94F61F18162CF381E0C5
S113100090E0DF91CF911F910F91FF90EF900895A1
S113101080E090E0A0ECB0E48093DF059093E005DD
S1131020A093E105B093E20586E696E6A6EEBEE35C
S11310308093E3059093E405A093E505B093E6055A
S11310408AE999E9A9E7B0E48093E7059093E80574
S1131050A093E905B093EA058DEC9CECACE0BFE30A
S113106080931B0690931C06A0931D06B0931E0646
S11310708DEC9CECACE4BDE38093EB059093EC0524
S1131080A093ED05B093EE052DEC3CEC4CEC5DE348
S11310902093EF053093F0054093F1055093F2054A
S11310A084EA90E7ADE7BFE38093F3059093F405FA
S11310B0A093F505B093F60580E090E0A0E4BFE3CB
S11310C08093F7059093F805A093F905B093FA057A
S11310D08AE999E9A9E1BFE38093FB059093FC05B4
S11310E0A093FD05B093FE058EEA97E4A1E6BFE365
S11310F08093FF0590930006A0930106B093020627
S11311008DEC9CECACECBEE3809303069093040658
S1131110A0930506B09306062093070630930806AD
S11311204093090650930A068DEC9CECACE4BEE3B4
S113113080930B0690930C06A0930D06B0930E06B5
S113114080E090E0A0EEB0E4809313069093140640
S1131150A0931506B093160680E090E0A0E8BFE3E4
S11311608093170690931806A0931906B0931A0655
S113117083E393E3A3EBBEE380931F0690932006DF
S1131180A0932106B09322068AE097EDA3E2BCE384
S11311908093270690932806A0932906B0932A06E5
S11311A0EFE9F5E0A0E0B0E084E1182E0E94AB2066
S11311B0EFE9F5E011928A95E9F787E79EEBAFE94D
S11311C0BDEB80939F059093A005A093A105B093D8
S11311D0A20520E030E040E050E02093A3053093E6
S11311E0A4054093A5055093A60583EC95EFA8E8C4
S11311F0BFEB8093A7059093A805A093A905B0938E
S1131200AA052093AB053093AC054093AD055093EC
S1131210AE058BE794E1AEE0B0E48093AF05909324
S1131220B005A093B105B093B20508950E940808D3
S11312308FED95E00E941F07892B41F40E94CA1A82
S11312408CE990E00E94701B0E94331C80918800FE
S11312509091890090930E0180930D011092F306F2
S113126080E090E0A0E0B0E08093A3069093A40611
S1131270A093A506B093A6060E947105AC980895A4
S11312806F927F928F929F92AF92BF92CF92DF9292
S1131290EF92FF920F931F93CF93DF93EC013A01E8
S11312A04B0158016901E880F9800A811B8120E023
S11312B030E040E050E0C801B7010E94F61F8823E7
S11312C0BCF0A6019501C801B7010E946320DC01AE
S11312D0CB019C01AD01C401B3010E948103DC0177
S11312E0CB019C01AD01C801B7010E94441F19C084
S11312F0D801C701B058A6019501BC01CD010E94D7
S11313006320DC01CB019C01AD01C401B3010E9447
S11313108103DC01CB019C01AD01C801B7010E942E
S1131320431FDC01CB0188839983AA83BB83DF91AC
S1131330CF911F910F91FF90EF90DF90CF90BF90CE
S1131340AF909F908F907F906F9008952F923F92CF
S11313504F925F926F927F928F929F92AF92BF92C1
S1131360CF92DF92EF92FF920F931F93CF93DF936D
S1131370CDB7DEB7A9970FB6F894DEBF0FBECDBFC9
S11313803090840533943092840520918800309104
S1131390890080910D0190910E018901081B190BA0
S11313A030930E0120930D01C801AA2797FDA09543
S11313B0BA2FBC01CD010E94E91F6B017C0117FF0C
S11313C002C00C9469158091800590918105A091CB
S11313D08205B09183059C01AD01C701B6010E944D
S11313E06320DC01CB019C01AD016AE077ED83E26F
S11313F09CE30E948103DC01CB019C01AD016FE6FB
S113140072E183E89AE30E946103DC01CB018093DB
S11314102F0690933006A0933106B0933206E090E5
S11314202B06F0902C0600912D0610912E069C019F
S1131430AD01C801B7010E94441F69837A838B837D
S11314409C8360932B0670932C0680932D069093B7
S11314502E060091B3051091B405C801AA2797FD83
S1131460A095BA2FBC01CD010E94E91F17FF02C04D
S11314700C946115209108013091090140910A01F1
S113148050910B012A8B3B8B4C8B5D8B0E9463200C
S11314907B018C018091AF059091B005A091B105BD
S11314A0B091B2059C01AD01C801B7010E9463204F
S11314B0DC01CB018093330690933406A093350668
S11314C0B09336060091B5051091B605C801AA2758
S11314D097FDA095BA2FBC01CD010E94E91F17FF0B
S11314E002C00C945915A0900401B0900501C0905D
S11314F00601D0900701A60195010E946320DC013A
S1131500CB0120E030E040E85FE3BC01CD010E9464
S1131510431FDC01CB0129EF30EA4BE050ECBC0166
S1131520CD010E946320DC01CB01809337069093A8
S11315303806A0933906B0933A060091D30510916A
S1131540D405C801AA2797FDA095BA2FBC01CD01E7
S11315500E94E91F17FF02C00C945115A6019501C2
S11315600E946320DC01CB0120E030E040E85FE32F
S1131570BC01CD010E94431FDC01CB0120E030E01F
S113158040EC5FE3BC01CD010E9463207B018C0130
S113159080919F059091A005A091A105B091A2050D
S11315A09C01AD01C801B7010E94441FDC01CB01BD
S11315B08093430690934406A0934506B093460651
S11315C00091B7051091B805C801AA2797FDA09509
S11315D0BA2FBC01CD010E94E91F17FF02C00C9471
S11315E04915A60195010E946320DC01CB0120E08E
S11315F030E040E85FE3BC01CD010E94431FDC0101
S1131600CB0129EF30EA4BE050ECBC01CD010E9444
S113161063207B018C018091A3059091A405A09186
S1131620A505B091A6059C01AD01C801B7010E94B2
S1131630441FDC01CB018093470690934806A09396
S11316404906B0934A060091DD051091DE05C801F4
S1131650AA2797FDA095BA2FBC01CD010E94E91FCE
S113166017FF02C00C9441152A893B894C895D8976
S11316700E946320DC01CB018093530690935406AF
S1131680A0935506B09356060091DB051091DC0536
S1131690C801AA2797FDA095BA2FBC01CD010E94CD
S11316A0E91F17FF02C00C9439152A893B894C891C
S11316B05D890E946320DC01CB01809357069093DF
S11316C05806A0935906B0935A060091D505109177
S11316D0D605C801AA2797FDA095BA2FBC01CD0154
S11316E00E94E91F17FF02C00C9431152A893B8917
S11316F04C895D890E946320DC01CB0180935B06E9
S113170090935C06A0935D06B0935E060091D905A4
S11317101091DA05C801AA2797FDA095BA2FBC013C
S1131720CD010E94E91F17FF02C00C942915A601E0
S113173095010E946320DC01CB0120E030E040E809
S11317405FE3BC01CD010E94431FDC01CB0120E01B
S113175030E040E25FE3BC01CD010E946320DC0184
S1131760CB0180935F0690936006A0936106B093CB
S113177062060091D7051091D805C801AA2797FDE4
S1131780A095BA2FBC01CD010E94E91F17FF02C02A
S11317900C942115A60195010E946320DC01CB0164
S11317A020E030E040E85FE3BC01CD010E94431F2C
S11317B0DC01CB0120E030E040E25FE3BC01CD017D
S11317C00E946320DC01CB0180936306909364063E
S11317D0A0936506B09366060091CF051091D005DD
S11317E0C801AA2797FDA095BA2FBC01CD010E947C
S11317F0E91F17FF02C00C941915A60195010E9458
S11318006320DC01CB0120E030E040E85FE3BC0171
S1131810CD010E94431FDC01CB0120E030E040E217
S11318205FE3BC01CD010E946320DC01CB01809306
S1131830670690936806A0936906B0936A06809041
S1131840BB059090BC052401662457FC6094762C5B
S1131850C301B2010E94E91F97FE02C00C94111546
S1131860A60195010E946320DC01CB0120E030E059
S113187040E85FE3BC01CD010E94431FDC01CB01C2
S113188029EF30EA4BE050E4BC01CD010E94632013
S1131890DC01CB0180934B0690934C06A0934D063C
S11318A0B0934E060091BD051091BE05C801AA274C
S11318B097FDA095BA2FBC01CD010E94E91F17FF27
S11318C002C00C940915A60195010E946320DC0155
S11318D0CB0120E030E040E85FE3BC01CD010E9491
S11318E0431FDC01CB0128E431EE4AE250E4BC01A1
S11318F0CD010E9463207B018C018091A70590910A
S1131900A805A091A905B091AA059C01AD01C80143
S1131910B7010E94441F6D837E838F8398876093F1
S11319203B0670933C0680933D0690933E06C301AC
S1131930B2010E94E91F97FE02C00C940115A60192
S113194095010E946320DC01CB0120E030E040E8F7
S11319505FE3BC01CD010E94431FDC01CB0128E4FD
S113196031EE4AE250E4BC01CD010E9463207B01C8
S11319708C018091AB059091AC05A091AD05B0911F
S1131980AE059C01AD01C801B7010E94441FDC01F2
S1131990CB0180934F0690935006A0935106B093C9
S11319A05206832D99278F709070892B09F0D4C02B
S11319B00091C7051091C805C801AA2797FDA095F5
S11319C0BA2FBC01CD010E94E91F17FF02C00C947D
S11319D096152A893B894C895D890E946320DC0124
S11319E0CB012FE832EC45EF5DE3BC01CD010E9451
S11319F0431FDC01CB0120E030E040EA50E4BC01AD
S1131A00CD010E946320DC01CB018093CB0690932F
S1131A10CC06A093CD06B093CE060091C9051091D3
S1131A20CA05C801AA2797FDA095BA2FBC01CD010C
S1131A300E94E91F17FF02C00C9464162A893B898F
S1131A404C895D890E946320DC01CB012FE832ECD4
S1131A5045EF5DE3BC01CD010E94431FDC01CB01D6
S1131A6020E030E040EA50E4BC01CD010E94632054
S1131A70DC01CB018093CF069093D006A093D106CE
S1131A80B093D2060091CB051091CC05C801AA27CA
S1131A9097FDA095BA2FBC01CD010E94E91F17FF45
S1131AA002C00C945C162A893B894C895D890E948A
S1131AB06320DC01CB012FE832EC45EF5DE3BC0190
S1131AC0CD010E94431FDC01CB0120E030E040EA5D
S1131AD050E4BC01CD010E946320DC01CB01809362
S1131AE0D3069093D406A093D506B093D60600915E
S1131AF0CD051091CE05C801AA2797FDA095BA2F50
S1131B00BC01CD010E94E91F17FF02C00C945416BA
S1131B102A893B894C895D890E946320DC01CB01C1
S1131B202FE832EC45EF5DE3BC01CD010E94431F79
S1131B30DC01CB0120E030E040EA50E4BC01CD01FF
S1131B400E946320DC01CB018093D7069093D806D2
S1131B50A093D906B093DA061091F3061123F1F499
S1131B602DEC3CEC4CE45EE36D817E818F819885A5
S1131B700E94F31F88230CF0DCC22DEC3CEC4CE4F7
S1131B805EEB6D817E818F8198850E94F61F181609
S1131B900CF0CFC211E01093F3060BC0153009F41A
S1131BA0CDC7143011F40C945216133011F40C9464
S1131BB09017E090A306F090A4060091A50610915A
S1131BC0A6068091230690912406A0912506B09143
S1131BD026069C01AD01C801B7010E946320DC0107
S1131BE0CB019C01AD016D817E818F8198850E941E
S1131BF0441FDC01CB0180933F0690934006A093E1
S1131C004106B093420600912F06109130062091B0
S1131C103106309132064091370650913806609172
S1131C20390670913A068BED96E00E94D303009139
S1131C302F061091300620913106309132064091E2
S1131C403F065091400660914106709142068BED2B
S1131C5096E00E94390480E090E0A0E8BFE380931E
S1131C60B3069093B406A093B506B093B606C0909D
S1131C70DB06D090DC06E090DD06F090DE060091F5
S1131C802F061091300620913106309132064AE039
S1131C9057ED63E27DE383E796E00E94D402C090AF
S1131CA0E306D090E406E090E506F090E6060091A5
S1131CB02F061091300620913106309132064FE8FC
S1131CC052EC65E77CE38BE796E00E94D402C09077
S1131CD04306D0904406E0904506F09046060091F5
S1131CE02F061091300620913106309132064DECCA
S1131CF05CEC6CEC7DE383E896E00E94D402C09037
S1131D004706D0904806E0904906F0904A060091B4
S1131D102F061091300620913106309132064DEC99
S1131D205CEC6CE47DE387E896E00E94D402C0900A
S1131D305306D0905406E0905506F0905606009154
S1131D402F0610913006209131063091320640E082
S1131D5050E060E07FE38FE896E00E94D402809137
S1131D60A7069091A806A091A906B091AA068AA3F5
S1131D709BA3ACA3BDA38093AB069093AC06A093A6
S1131D80AD06B093AE060F2EF0E02F2EF0E03F2EFE
S1131D90F0E04F2EF0E05F2EF02DA090F705B0900C
S1131DA0F805C090F905D090FA056090FB05709095
S1131DB0FC058090FD059090FE0520918F063091E2
S1131DC0900640919106509192062A8F3B8F4C8F3A
S1131DD05D8F20E030E040E05FE36A8D7B8D8C8D89
S1131DE09D8D0E946320DC01CB0120E030E040E0C7
S1131DF05FE3BC01CD010E94441F7B018C019B0168
S1131E00AC01C601B5010E9463205B016C01A8010D
S1131E109701C401B3010E9463203B014C01A60158
S1131E2095016AA17BA18CA19DA10E94F61F1816A1
S1131E300CF055C5A60195016AA17BA18CA19DA1B9
S1131E400E94431F1B012C0160939B0670939C0608
S1131E5080939D0690939E062AE037ED43EA5DE366
S1131E600E94431FDC01CB019C01AD0160E070E0E6
S1131E7080E090E00E946103DC01CB01E0902F063A
S1131E80F090300600913106109132069C01AD01AC
S1131E90C801B7010E946320DC01CB019C01AD01A4
S1131EA0BC01CD010E94441FDC01CB01E0909F06E0
S1131EB0F090A0060091A1061091A2069C01AD012C
S1131EC0C801B7010E94441F7B018C01E0929F0668
S1131ED0F092A0060093A1061093A2060F2EF0E044
S1131EE0EF2EF0E0FF2EF0E00F2FFFE31F2FF02D79
S1131EF020E030E040E05FEB60919F067091A00627
S1131F008091A1069091A2060E94A1035B016C013D
S1131F1060939F067093A0068093A1069093A206F7
S1131F208091030690910406A0910506B0910606DF
S1131F307C018D0117FB109517F9109520E030E016
S1131F4040E05FE36A8D7B8D8C8D9D8D0E946320C4
S1131F50DC01CB0120E030E040E05FE3BC01CD01D7
S1131F600E94441FDC01CB019C01AD01C801B701F3
S1131F700E946320DC01CB019C01AD016AA17BA11D
S1131F808CA19DA10E94F31F88230CF023C58FE828
S1131F9092ECA5EFBCE38093AF069093B006A093B8
S1131FA0B106B093B20626E636E646E65FE3C20122
S1131FB0B1010E946320DC01CB01A6019501BC01A3
S1131FC0CD010E94441FDC01CB010F2EFDECEF2E4E
S1131FD0FCECFF2EFCEC0F2FFEE31F2FF02D2DEC5D
S1131FE03CEC4CEC5EEBBC01CD010E94A103DC0196
S1131FF0CB01A0907306B0907406C0907506D09083
S113200076069C01AD01C601B5010E94441F3B0147
S11320104C016093770670937806809379069093C9
S11320207A0620909306309094064090950650903E
S1132030960620E030E040E85FE3C201B1010E946F
S1132040F31F882309F046C080912F069091300633
S1132050A0913106B09132069C01AD01C401B301D7
S11320600E946320DC01CB0120E030E040E850E432
S1132070BC01CD010E946320DC01CB01E0907F060E
S1132080F090800600918106109182069C01AD01BA
S1132090C801B7010E94441FDC01CB010F2EFDECE7
S11320A0EF2EFCECFF2EFCEC0F2FFDE31F2FF02D89
S11320B02DEC3CEC4CEC5DEBBC01CD010E94A1038A
S11320C0DC01CB0180937F0690938006A093810668
S11320D0B09382061091F306123081F02AE939E9AF
S11320E049E15FE3C601B5010E94F61F18160CF022
S11320F076C412E01093F3061093F406C0903306EE
S1132100D0903406E0903506F090360623E333E3AE
S113211043EB5EE3C701B6010E94F31F882384F4F6
S113212012E01093F30684E08093F4060E94710594
S113213048C712E01093F30681E08093F40639CD8A
S11321401130A1F7A701960166E676E686EE9EE3D6
S11321500E9461036D877E878F87988B8091DF054E
S11321609091E005A091E105B091E205A4019301ED
S1132170BC01CD010E9463205B016C01E090E3058A
S1132180F090E4050091E5051091E60580917B0649
S113219090917C06A0917D06B0917E069C01AD01D4
S11321A0C801B7010E946320DC01CB019C01AD0191
S11321B0C601B5010E94441F5B016C01E090E70574
S11321C0F090E8050091E9051091EA0580917F06F9
S11321D090918006A0918106B09182069C01AD0188
S11321E0C801B7010E946320DC01CB019C01AD0151
S11321F0C601B5010E94441FDC01CB01A20191017B
S1132200BC01CD010E9463207B018C018091B30647
S11322109091B406A091B506B091B6069C01AD01AB
S1132220C801B7010E9463202B013C01198A20E0F8
S113223030E040E050E00E94F61F88230CF49FC574
S11322408091F3059091F405A091F505B091F60500
S11322502D853E854F855889BC01CD010E946320A0
S1132260DC01CB012AA13BA14CA15DA1BC01CD01A4
S11322700E94431F7B018C0120911B0630911C0698
S113228040911D0650911E062E8B3F8B488F598F0F
S113229060E070E080E89FE30E94861FDC01CB01D0
S11322A09C01AD01C801B7010E946320DC01CB0190
S11322B020911706309118064091190650911A067C
S11322C0BC01CD010E9481037B018C0160936B06EC
S11322D070936C0680936D0690936E069B01AC011F
S11322E0C301B2010E94F61F18160CF4CAC540922D
S11322F0A3065092A4066092A5067092A606A301B6
S113230092016E897F89888D998D0E946320DC01FA
S1132310CB019C01AD016AA17BA18CA19DA10E946E
S1132320441F7B018C012D853E854F85588960E0D3
S113233070E080E89FE30E94861FDC01CB019C01D2
S1132340AD01C801B7010E9463206EA37FA388A7D3
S113235099A76093B7067093B8068093B9069093D3
S1132360BA0680902F0690903006A0903106B09067
S11323703206A3019201C501B4010E946320DC016D
S1132380CB0120E030E040E05FE3BC01CD010E94DE
S11323906320DC01CB019C01AD016AA17BA18CA16E
S11323A09DA10E94441F6AA37BA38CA39DA3609359
S11323B0A7067093A8068093A9069093AA06C30162
S11323C0B2010E944803DC01CB0120E030E040E28E
S11323D051E4BC01CD010E946320DC01CB019C01CE
S11323E0AD016091E7067091E8068091E90690914D
S11323F0EA060E946103DC01CB018093E706909317
S1132400E806A093E906B093EA060F2EF0E0CF2E7B
S1132410F0E0DF2EF0E0EF2EF0E0FF2EF02D95013E
S1132420840140E050E060E07FE387EE96E00E94A4
S1132430D402E090AF06F090B0060091B10610917E
S1132440B20620E030E040E050E0C801B7010E944D
S1132450F31F882309F457C58091840583FF9CC525
S11324608091B7069091B806A091B906B091BA06CA
S1132470A8019701BC01CD010E94441F6EA37FA354
S113248088A799A76093B7067093B8068093B90696
S11324909093BA063989332309F428C580916F06CD
S11324A090917006A0917106B091720620912F064A
S11324B0309130064091310650913206BC01CD0175
S11324C00E94441FDC01CB0180936F069093700639
S11324D0A0937106B093720620E030E040E05FE321
S11324E0BC01CD010E94F61F181634F482E08093DB
S11324F0F30685E08093F4068091EC06882309F4C2
S1132500E0C48091EB06882309F431C580919306D9
S113251090919406A0919506B0919606E0902F06AE
S1132520F09030060091310610913206A80197010F
S1132530BC01CD010E94441FDC01CB019C01AD0113
S113254060E070E080E89FE30E9481031B012C019E
S113255060939306709394068093950690939606E1
S113256020E030E040E85EE3C801B7010E94632048
S1132570DC01CB01E0909706F09098060091990653
S113258010919A069C01AD01C801B7010E94441F35
S1132590DC01CB019C01AD0160E070E080E89FE3C9
S11325A00E9481036E8F7F8F88A399A360939706FF
S11325B0709398068093990690939A0680918F065B
S11325C090919006A0919106B09192069C01AD0164
S11325D060E070E080E090E40E94431FDC01CB01E6
S11325E0E0900B06F0900C0600910D0610910E067B
S11325F09C01AD01C801B7010E9463207B018C01DD
S1132600A090A706B090A806C090A906D090AA06EC
S1132610A6019501C601B5010E946320DC01CB012E
S11326209C01AD01C801B7010E94441FDC01CB012C
S11326309C01AD0160E070E080E89FE30E94861F8A
S1132640DC01CB01E0900706F09008060091090632
S113265010910A069C01AD01C801B7010E946320D4
S1132660DC01CB01A2019101BC01CD010E946320D8
S11326703B014C016093BB067093BC068093BD067E
S11326809093BE06C601B5010E9448037B018C01EC
S11326908091EF059091F005A091F105B091F205BC
S11326A09C01AD0160E070E080E89FE30E94861F1A
S11326B0DC01CB019C01AD01C801B7010E9463207C
S11326C0DC01CB019C01AD0160E070E080E89FE398
S11326D00E9481037B018C018091EB059091EC05B4
S11326E0A091ED05B091EE059C01AD01C801B701C3
S11326F00E9463201B012C01809183069091840623
S1132700A0918506B09186069C01AD01C401B30178
S11327100E9463205B016C01809113069091140662
S1132720A0911506B0911606A6019501BC01CD0134
S11327300E946320DC01CB010F2EF9EFEF2EF0EAAB
S1132740FF2EFBE00F2FF0E41F2FF02D29EF30EACE
S11327504BE050ECBC01CD010E94A1037B018C0134
S113276060938B0670938C0680938D0690938E06EF
S11327708091870690918806A0918906B0918A0677
S11327809C01AD01C801B7010E94431FDC01CB01CC
S1132790A2019101BC01CD010E946320DC01CB01A7
S11327A0A6019501BC01CD010E94441F5B016C018F
S11327B06093BF067093C0068093C1069093C206CF
S11327C06E8C7F8C88A099A097FA909497F8909437
S11327D09B01AC016EA17FA188A599A50E94431F0E
S11327E0DC01CB01EE8CFF8C08A119A1A40193019B
S11327F0BC01CD010E94A103DC01CB018093C3067F
S11328009093C406A093C506B093C606A60195018D
S11328106EA17FA188A599A50E94441FDC01CB016C
S1132820A4019301BC01CD010E94A103DC01CB01F1
S11328308093C7069093C806A093C906B093CA06AE
S113284000E010E020E030E4409127065091280693
S11328506091290670912A0687EA96E04C960E94B8
S1132860400900E010E020E030E440912706509158
S113287028066091290670912A0687EA96E08096D8
S11328800E9440092091C7063091C8064091C906AC
S11328905091CA066091C3067091C4068091C50622
S11328A09091C6060E94A104A090C306B090C406ED
S11328B0C090C506D090C606E090FF05F0900006D3
S11328C00091010610910206A8019701C601B50105
S11328D00E94F61F18160CF066C11A9872C3D40130
S11328E0C301B0589C01AD016AA17BA18CA19DA13B
S11328F00E94F31F88230CF4F6C020929B063092AA
S11329009C0640929D0650929E0680919F0690914F
S1132910A006A091A106B091A20689879A87AB87E9
S1132920BC87A2019101BC01CD010E94F61F1816BB
S11329300CF0D2C1A60195016AA17BA18CA19DA135
S11329400E94431FDC01CB019C01AD01C201B10116
S11329500E948103DC01CB019C01AD016AE077EDAB
S113296083EA9CEB0E948103DC01CB01E0902F06FB
S1132970F090300600913106109132069C01AD01B1
S1132980C801B7010E946320DC01CB0120E030E0E4
S113299040E850E4BC01CD010E946320DC01CB017E
S11329A09C01AD0169857A858B859C850E94441FB5
S11329B07B018C01A20191010E94F31F88230CF07A
S11329C085CA20929F063092A0064092A10650929A
S11329D0A20684CA80E090E0A0E0B0E0DCCA2AE964
S11329E039E949E15FEBC601B5010E94F31F882371
S11329F00CF084CB12E01093F30683E08093F4068A
S1132A007DCB20E030E040E857E40E94441F0C9462
S1132A109F0C20E030E040E857E40E94441F0C94EF
S1132A20630C20E030E040E857E40E94441F0C941B
S1132A30300C20E030E040E857E40E94441F0C943E
S1132A40FD0B20E030E040E857E40E94441F0C9462
S1132A50CA0B20E030E040E857E40E94441F0C9485
S1132A60970B20E030E040E857E40E94441F0C94A8
S1132A70760B20E030E040E857E40E94441F0C94B9
S1132A80550B20E030E040E857E40E94441F0C94CA
S1132A90340B20E030E040E857E40E94441F0C94DB
S1132AA0F10A20E030E040E857E40E94441F0C940F
S1132AB0AE0A20E030E040E857E40E94441F0C9442
S1132AC0730A20E030E040E857E40E94441F0C946D
S1132AD03A0A20E030E040E857E40E94441F6B01CA
S1132AE07C010C94E309A40193016AA17BA18CA14C
S1132AF09DA10E94441F1B012C0160939B067093AF
S1132B009C0680939D0690939E062AE037ED43EA47
S1132B105DE30E94441FDC01CB019C01AD0160E038
S1132B2070E080E090E00E948103A6C920E030E0DC
S1132B3040E857E40E94441F0C94E90C2DEC3CEC53
S1132B404CE45DE369817A818B819C810E946320DE
S1132B50DC01CB019C01AD016AE979E989E99EE3D5
S1132B600E9481037B018C016093C3067093C406A9
S1132B708093C5069093C60620E030E040E05FE312
S1132B800E946320DC01CB018093C7069093C806A2
S1132B90A093C906B093CA069C01AD01C801B70150
S1132BA00E94A1040EC23701480197FA909497F845
S1132BB09094A4019301C601B5010E94F31F87FDFF
S1132BC08CCE3989332309F088CEA090C706B09003
S1132BD0C806C090C906D090CA06A8019701C601CC
S1132BE0B5010E94F61F18160CF477CEA4019301C8
S1132BF0C601B5010E94F31F87FD6FCEE090430626
S1132C00F0904406009145061091460620E030E01D
S1132C1040E85FE3C801B7010E94F61F18160CF4E0
S1132C205CCE20E030E040E85FEBC801B7010E94D1
S1132C30F31F87FD52CE60916706709168068091FC
S1132C40690690916A060E9448037B018C01809179
S1132C501F0690912006A0912106B09122069C01A6
S1132C60AD01C801B7010E94F61F181644F4809103
S1132C70840599278C709070089709F42ECE809162
S1132C802B0690912C06A0912D06B0912E062DECCA
S1132C903CEC4CE45EE3BC01CD010E94F31F8823AD
S1132CA00CF41BCE1A9A8DC120E030E040E857E4C2
S1132CB00E94441F0C94880D20E030E040E857E463
S1132CC00E94441F0C94530D20E030E040E857E488
S1132CD00E94441F0C941E0DA201910169857A85FE
S1132CE08B859C850E94F31F88230CF0F7C8A401F0
S1132CF093016AA17BA18CA19DA10E94441FDC01C8
S1132D00CB019C01AD01C201B1010E946103DC0150
S1132D10CB019C01AD016AE077ED83EA9CE30E945C
S1132D206103DC01CB01E0902F06F09030060091A6
S1132D303106109132069C01AD01C801B7010E9411
S1132D406320DC01CB0120E030E040E850E4BC012A
S1132D50CD010E946320DC01CB019C01AD0169859A
S1132D607A858B859C850E94441F7B018C01A2017E
S1132D7091010E94F61F18160CF0A8C822CE80916B
S1132D80170690911806A0911906B0911A065C01D5
S1132D906D01D7FAD094D7F8D0948091F30590912F
S1132DA0F405A091F505B091F605B0582D853E8542
S1132DB04F855889BC01CD010E946320DC01CB0101
S1132DC02AA13BA14CA15DA1BC01CD010E94431FDE
S1132DD07B018C0180911B0690911C06A0911D061D
S1132DE0B0911E068E8B9F8BA88FB98F9C01AD016D
S1132DF060E070E080E89FE30E94861FDC01CB0165
S1132E009C01AD01C801B7010E946320DC01CB0124
S1132E10A6019501BC01CD010E9461037B018C01D7
S1132E2060936B0670936C0680936D0690936E06A8
S1132E309B01AC01C301B2010E94F31F88230CF073
S1132E4056CA20E030E040E050E0C801B7010E94DB
S1132E50F61F88230CF4AFC00F2EF0E04F2EF0E0E5
S1132E605F2EF0E06F2EF0E07F2EF02D4092A3064F
S1132E705092A4066092A5067092A60691E0998BE2
S1132E803ECA20E030E040E050E0C801B7010E94B3
S1132E90F31F88230CF092C00F2EF0E04F2EF0E0C9
S1132EA05F2EF0E06F2EF0E07F2EF02D4092A3060F
S1132EB05092A4066092A5067092A60631E0398B62
S1132EC01ECA209093063090940640909506509028
S1132ED096068091970690919806A0919906B091D4
S1132EE09A068E8F9F8FA8A3B9A368CB80E090E049
S1132EF0A0E0B0E080936F0690937006A0937106F3
S1132F00B0937206F9CA2091B7063091B806409181
S1132F10B9065091BA062EA33FA348A759A7BACA27
S1132F206AE077ED83E29CE30E94A30580912B067F
S1132F3090912C06A0912D06B0912E0620E030E051
S1132F4040E050E4BC01CD010E94F61F1816CCF5F8
S1132F501A98F894EFE9F5E0A0E0B0E084E1182EC7
S1132F600E94B020789414E01093F3062AC02090B5
S1132F7093063090940640909506509096062091C2
S1132F809706309198064091990650919A062E8F93
S1132F903F8F48A359A312CB8091B7069091B806EE
S1132FA0A091B906B091BA06A8019701BC01CD0160
S1132FB00E94431F63CA2701380158CF27013801F3
S1132FC075CFA9960FB6F894DEBF0FBECDBFDF91C3
S1132FD0CF911F910F91FF90EF90DF90CF90BF9012
S1132FE0AF909F908F907F906F905F904F903F90A5
S1132FF02F90089582EE8FBD81E08EBD10928B00DC
S113300085E080938A0084EB92EAA1E9B8E3809397
S1133010800590938105A0938205B093830508955C
S1133020EF92FF921F93CF93DF93CDB7DEB7229732
S11330300FB6F894DEBF0FBECDBFCE0101960E943D
S11330406D1C282F882309F4A9C0E981FA818081A5
S1133050833479F0823509F444C0883409F459C0C2
S11330608134F9F0873509F46CC0813509F096C0D4
S11330707CC0213009F092C00E94CA1A83E60E94E3
S1133080501B10E03BE2E32E36E0F32ED7018D9186
S11330907D010E94501B1F5F1A3CC0F30E94331C29
S11330A07DC0253109F07AC07F010894E11CF11C30
S11330B00E94CA1A81E60E94501BC7010E94920610
S11330C0892B09F469C084E1EFE9F5E0D7010D909B
S11330D001928A95E1F781E00E94501B0E94331C03
S11330E05DC0213009F05AC00E94CA1A82E70E94CA
S11330F0501B2FEDE22E25E0F22E1BE4F701819107
S11331007F010E94501B115017FFF8CF0E94331CFF
S113311045C0213009F042C00E94CA1A88E60E94C4
S1133120501B9FE9E92E95E0F92E13E1D7018D910B
S11331307D010E94501B115017FFF8CF0E94331CD1
S11331402DC02D3459F57F010894E11CF11C0E9417
S1133150CA1A87E70E94501BC7010E941F07892BC8
S1133160D9F08CE4EFEDF5E0B1CF2630B9F48181EC
S11331708333A1F48281823689F48381803371F4AC
S11331808481803359F48581843741F40E94710528
S1133190F894FF9500FC02C080E09ECF22960FB603
S11331A0F894DEBF0FBECDBFDF91CF911F91FF908A
S11331B0EF9008950E94AB190E9471050E94BA1DF8
S11331C08823E1F30E945F1A0E94BA1D8823B1F399
S11331D0F9CF0895CFEFD0E1DEBFCDBF0E94FA173B
S11331E00E94B5020E946E1A0E94391F78940E94B0
S11331F0CA1A85EB90E00E94701B0E94331C0E9447
S11332009F19969A0E94601A96980E941609979898
S113321096980F2EF0E0AF2EF0E0BF2EF0E0CF2E08
S1133220FFE3DF2EF02D0E94BA1D8823B9F540E09C
S11332306FE071E083EB95E00E94AD198823C9F536
S1133240609100017091010180910201909103014C
S113325020E030E040E050E00E94F31F18161CF319
S11332600E94BA1D8823F9F2A0920001B0920101D4
S1133270C0920201D09203010E94CA1A8EEB90E020
S11332800E94701B0E94331C0E944A1D0E94911DC3
S11332900E94871D0E94BA1D882349F20E941018BB
S11332A040E06FE071E083EB95E00E94AD19882364
S11332B039F20E94A609E0900001F090010100910A
S11332C002011091030180912F0690913006A09184
S11332D03106B09132069C01AD01C801B7010E94CC
S11332E0431F609300017093010180930201909346
S11332F00301AECF80917002E82FFF27ED50FF4FFE
S113330084918093720280917202E82FFF27EE0F5E
S1133310FF1FE853FF4F949183B18F719295990FDA
S1133320907E892B83B980917202E82FFF27EE0FDC
S1133330FF1FE953FF4F849187B9369A089510927D
S1133340620010926100479A8FE886B91092700269
S11333500E947A19089533980895CF93DF93EC016E
S1133360DB01F894E42FFF27EB50F94F9C91808107
S1133370981729F180818C9330E040E050E0A32F2E
S1133380BB2727E0FD01E295F295F07FFE27E07F61
S1133390FE27E05FFE4F81919191480F591F215004
S11333A027FFF9CFAA0FBB1FAC0FBD1F4D935C9332
S11333B03F5F363110F3789481E090E003C0789455
S11333C080E090E0DF91CF9108951F920F920FB6A5
S11333D00F9211242F933F934F935F936F937F9397
S11333E08F939F93AF93BF93EF93FF9320E030E0CD
S11333F046E080917202A82FBB27AA0FBB1FAA0F19
S1133400BB1FAA0FBB1FA20FB31FAA0FBB1FA05F36
S1133410BE4F80917202E82FFF27EE0FFF1FEE0FC1
S1133420FF1FEE0FFF1FE20FF31FEE0FFF1FE05F02
S1133430FE4F8281938111969C938E9341502F5F0E
S11334403F4F47FFD6CF80917202E82FFF27E295C6
S1133450F295F07FFE27E07FFE27E05FFE4F84B108
S113346095B19787868780917202E82FFF27EB50EA
S1133470F94F80818F5F8083809170028F5F80938A
S1133480700280917002883238F01092700280913C
S113349071028F5F809371020E947A19FF91EF91FC
S11334A0BF91AF919F918F917F916F915F914F9158
S11334B03F912F910F900FBE0F901F901895089574
S11334C0809171028A30E0F30895E82FFF27E55ECA
S11334D0FA4F8491992787FD9095089587E089B9DB
S11334E0119A109215078091150780931407539A27
S11334F008951F920F920FB60F9211248F939F93EA
S1133500EF93FF939091140780911507981779F022
S113351080911507E82FFF27E958FC4F80818CB96B
S1133520809115078F5F99278093150701C05598DF
S1133530FF91EF919F918F910F900FBE0F901F906D
S11335401895282FE09114079E2F9F5F80911507EF
S11335509817E1F3FF27E958FC4F20839093140751
S1133560559A0895482FE0911407EF5F2E2F3327C3
S1133570E15080911507281751F0FF27E958FC4FB7
S1133580408320931407559A81E090E0089580E0E9
S113359090E0089580E00E94A11A81E080930D07D5
S11335A08091140780930E078F5F80930F07E0E1EB
S11335B0F7E083E01192815087FFFCCF0895DB018F
S11335C0FB019381292F3327220F331F220F331F2F
S11335D0F901E25EFE4F4491FB01928194279383AB
S11335E0F901E35EFE4F4491FB019181942792839C
S11335F0F901E45EFE4F44919C919427FB01918371
S1133600F901E55EFE4F949198279C930895582FF5
S113361040910F07942F9F5F692F6F5F262F3327E9
S1133620809115079817E1F3809115078217C1F36C
S11336305523A9F480910E07E82FFF27E958FC4F82
S113364080910D078064808340930E0790930F0749
S113365081E080930D0740931407559A0895E42F51
S1133660FF27E958FC4F508320910D072F5F283323
S113367029F020930D0790930F07089580910E076A
S1133680E82FFF27E958FC4F208390930E0760939F
S11336900F0781E080930D0790931407559A0895BE
S11336A01F93182F60E177E00E94DF1A812F0E9498
S11336B0071B1F910895CF93DF93EC018881882322
S11336C061F021960E94501B8881882331F0219655
S11336D00E94501B88818823A1F7DF91CF91089520
S11336E0CF93DF93EC0102C00E94501BFE01219690
S11336F084918823C9F7DF91CF9108950F931F9385
S11337008C010E94501B812F99270E94501B1F91EE
S11337100F9108950F931F938C010E94501B812FCA
S1133720992787FD9A950E94501B1F910F91089528
S1133730EF92FF920F931F937B018C01862F0E94BF
S1133740501BBB27A12F902F8F2D0E94501BC80107
S1133750AA27BB270E94501B812F9927AA27BB2782
S11337600E94501B1F910F91FF90EF900895EF92CC
S1133770FF920F931F937B018C01862F0E94501B95
S1133780BB2717FDBA95A12F902F8F2D0E94501B98
S1133790C801BB2797FDB095AB2F0E94501B812F0A
S11337A0BB2787FDB0959B2FAB2F0E94501B1F9109
S11337B00F91FF90EF9008951F93182F82958F70AB
S11337C0E82FFF27E55EFA4F84910E94501B1F707B
S11337D0E12FFF27E55EFA4F84910E94501B1F9151
S11337E008950F931F938C01FC01EF2FFF27E2959F
S11337F0EF70E55EFA4F84910E94501BE12FFF2782
S1133800EF70F070E55EFA4F84910E94501BF8014E
S1133810F295E295EF70EF27FF70EF27EF70F070ED
S1133820E55EFA4F84910E94501B0F701070055E84
S11338301A4FF80184910E94501B1F910F91089513
S1133840EF92FF920F931F937B018C01C801AA276B
S1133850BB270E94F11BC7010E94F11B1F910F910E
S1133860FF90EF900895CF93DF93C0E1D7E0899163
S11338700E94071B87E0C331D807C9F3C4F38091C2
S11338800E07E82FFF27E958FC4F80910D07806849
S1133890808380910F0780931407559ADF91CF910D
S11338A0089520E030E09091160780910B07981757
S11338B011F421E030E0C901089590910B07809143
S11338C016078917E1F3E92FFF27E958FB4F808199
S11338D09F5F90930B0799270895CF92DF92EF9201
S11338E0FF921F93CF93DF93CDB7DEB724970FB624
S11338F0F894DEBF0FBECDBF7C016E010894C11CDD
S1133900D11C0E94511C8823D1F40E945D1C982F65
S11339108823C1F480917303882329F080917E0564
S11339208F5F80937E0590937403909375039093B7
S11339307603909373030E94511C882331F380E033
S113394090E09AC0209174032223D9F5382F3F7355
S113395030937403822F97FD46C080937503892F9B
S113396099270024880F991F001C880F991F001C99
S1133970892F902D817080937603232F213009F6AF
S113398080917603882351F080917303E82FFF27F9
S1133990ED58FD4F10828F5F809373031092740370
S11339A080917503882309F4ACCF209173032530EB
S11339B0E0F480917B058F5F80937B051092730305
S11339C0A0CF2230D8F280917303E82FFF27ED585F
S11339D0FD4F90838F5F80937303822F8150809378
S11339E07403282FCBCF81E0B8CFF60183E0119286
S11339F0815087FFFCCF10E040E050E0209173033A
S1133A00822F9927049748175907A4F4FA01ED580F
S1133A10FD4FBE016F5F7F4F80810E94DF1A1F5FE1
S1133A20E12FFF2720917303822F99270497E8172A
S1133A30F9076CF3E22FFF27E159FD4FD601AF01DF
S1133A404D5F5F4F9D918191981771F44E175F07F9
S1133A50CCF7245083E792E0F7019183808310929E
S1133A607303822F992708C080917C058F5F809310
S1133A707C051092730345CF24960FB6F894DEBFED
S1133A800FBECDBFDF91CF911F91FF90EF90DF90DC
S1133A90CF90089510920C070895FF920F931F93EF
S1133AA0CF938C01F62EFC01C081CC2359F1809177
S1133AB00C078823F1F080E20E94501B8F2D0E9496
S1133AC0501B8DE30E94501B8C2F82958F70E82F22
S1133AD0FF27E55EFA4F84910E94501BCF70EC2FB4
S1133AE0FF27E55EFA4F84910E94501BF801108273
S1133AF009C00E94CA1A86E40E94501B81E0809388
S1133B000C07DCCFCF911F910F91FF900895809106
S1133B100C07882309F4089510920C070E94331CA3
S1133B2008956FE487E795E00E944D1D66E489E7F8
S1133B3095E00E944D1D68E488E795E00E944D1DC4
S1133B4060E58AE795E00E944D1D63E58BE795E00B
S1133B500E944D1D63E48CE795E00E944D1D6AE5CB
S1133B608DE795E00E944D1D64E58EE795E00E9487
S1133B704D1D089520E030E09091140780911507C1
S1133B80981711F421E030E0C901089580911407D9
S1133B9090911507891B99270895CF93DF93EC0122
S1133BA08881882361F021960E94A11A8881882344
S1133BB031F021960E94A11A88818823A1F7DF9110
S1133BC0CF910895CF93DF93EC0102C00E94A11A14
S1133BD0FE01219684918823C9F7DF91CF9108953E
S1133BE01F93182F82958F70E82FFF27E55EFA4FF9
S1133BF084910E94A11A1F70E12FFF27E55EFA4FFE
S1133C0084910E94A11A1F9108950F931F938C0110
S1133C10FC01EF2FFF27E295EF70E55EFA4F8491E8
S1133C200E94A11AE12FFF27EF70F070E55EFA4FB2
S1133C3084910E94A11AF801F295E295EF70EF27A2
S1133C40FF70EF27EF70F070E55EFA4F84910E94E9
S1133C50A11A0F701070055E1A4FF80184910E942A
S1133C60A11A1F910F910895EF92FF920F931F9342
S1133C707B018C01C801AA27BB270E94051EC7012E
S1133C800E94051E1F910F91FF90EF9008950E94CE
S1133C90A11A08950F931F938C010E94A11A812FDA
S1133CA099270E94A11A1F910F9108950F931F93B2
S1133CB08C010E94A11A812F992787FD9A950E9451
S1133CC0A11A1F910F910895EF92FF920F931F93E2
S1133CD0DC01CB017C018D010E94A11A8F2D0E9471
S1133CE0A11A802F0E94A11A812F0E94A11A1F914C
S1133CF00F91FF90EF9008951F920F920FB60F92BD
S1133D0011242F933F934F935F936F938F939F93BC
S1133D10EF93FF932BB16CB1809116078F5F482FFF
S1133D20552780910B07481709F1332724FD18C044
S1133D3023FF05C0809178058F5F8093780522FF6B
S1133D4005C080917A058F5F80937A05809116076C
S1133D50E82FFF27E958FB4F6083409316070BC0F9
S1133D60809179058F5F80937905E2CF8091770503
S1133D708F5F80937705FF91EF919F918F916F9162
S1133D805F914F913F912F910F900FBE0F901F9015
S1133D9018954BB147FD1AC0242F332726FF15C0B1
S1133DA09091140780911507981779F04BB9809179
S1133DB01507E82FFF27E958FC4F80818CB98091C3
S1133DC015078F5F99278093150708955CB180913B
S1133DD016078F5F682F772780910B07681709F103
S1133DE0242F332724FF05C0809179058F5F8093AA
S1133DF0790523FF05C0809178058F5F809378054E
S1133E0022FF05C080917A058F5F80937A058091A7
S1133E101607E82FFF27E958FB4F508360931607D6
S1133E20BDCF809177058F5F80937705B5CF1F93C2
S1133E300E945D1C182F0E945D1C9927382F222791
S1133E40812F9927822B932B1F910895E0910B07C3
S1133E50809116078E17E1F3FF27E958FB4F808105
S1133E60992708958091160790910B07891B99272C
S1133E70089510920B0710921607109818988AB19B
S1133E8080698AB908955058192EEFD001D0D2C054
S1133E90BA176207730784079507B1F188F40EF423
S1133EA010940B2EBA2FA02D062E622F202D072E34
S1133EB0732F302D082E842F402D092E952F502D31
S1133EC0FF275523B9F0591B49F0573E98F0469502
S1133ED037952795A795F0405395C9F776F0BA0F13
S1133EE0621F731F841F30F4879577956795B79584
S1133EF0F040939517FA0F2E0895BF1BBB27BA0BFA
S1133F00620B730B840BF6CFDEF6DBC0AED001D0B0
S1133F1091C0552359F0992369F09F575F57951B1A
S1133F2033F442F4903811F4915805C09BC0915871
S1133F309F3F09F4C6C0BB27112462177307840787
S1133F4030F4660F771F881FBB1F915098F311D070
S1133F500F920FD00F920DD0A0E82617370748070D
S1133F601B0609F0A048BA2F602D7F918F91002481
S1133F700895A0E80024621773078407B10528F0A8
S1133F80621B730B840BB1090A2A660F771F881F03
S1133F90BB1FA69581F7089597FB73D09F3738F020
S1133FA0FEE9F91B982F872F762F6B2F05C086C04B
S1133FB09695879577956795F150D0F73EF490954F
S1133FC08095709561957F4F8F4F9F4F0895E8942A
S1133FD003C097FB0EF4F3DFB62F672F782F892FDA
S1133FE09EE9002427C00ED05EF004C00BD026F05A
S1133FF001C008D019F020F48FEF089580E00895EF
S113400081E0089597FB092E052600F8689430D0C6
S1134010E89407FC07C0621773078407950721F02B
S113402008F400940794989408959A95BB0F661F1A
S1134030771F881F11249923A1F08823B2F79F3F8B
S113404059F0BB0F48F421F4002011F460FF04C0C0
S11340506F5F7F4F8F4F9F4F881F9795879597F975
S113406008952CC09FEF80EC0895052E092607FAC9
S1134070440F551F5F3F79F0AA27A51708F051E0B8
S11340804795880F991F9F3F31F0BB27B91708F058
S113409091E0879508959F919F911124E3CF97FB19
S11340A0880F991F9F3F31F0BB27B91708F091E0A3
S11340B0879508959F919F911124D4CF66277727E0
S11340C0882799270895D1DF01D0B4CF992339F0F7
S11340D0552329F09F575F57950F13F49AF1F1CFA9
S11340E091589F3FE1F3629FA12D0F92BB27639FDD
S11340F0A00DB11DEE27729FA00DB11DEE1FAF9351
S1134100AA27649FB00DE11D739FB00DE11DAA1F86
S11341106627829FB00DE11DA61F5527749FE00DF1
S1134120A11D551F839FE00DA11D561F849FA00D47
S1134130511D852F7A2F6E2F1F900F9088231AF40C
S1134140939539F48FCF000C111CBB1F661F771F8A
S1134150881F0128089509D001921A94E1F708955F
S113416001900BD01A94E1F70895E199FECFBFBBFB
S1134170AEBBE09A11960DB20895E199FECFBFBB94
S1134180AEBB0DBA11960FB6F894E29AE19A0FBE3F
S105419008958C
S10F4192000000400000803900000039EB
S9030000FC
